:020000040800F2
:1000000018080020D503000835040008350400084E
:10001000350400083504000835040008000000001D
:10002000000000000000000000000000350400088F
:10003000350400080000000035040008E904000849
:1000400035040008350400083504000835040008AC
:10005000350400083504000835040008350400089C
:10006000350400083504000835040008350400088C
:10007000350400083504000835040008350400087C
:10008000350400083504000835040008350400086C
:10009000350400083504000835040008350400085C
:1000A000350400083504000835040008350400084C
:1000B000350400083504000835040008350400083C
:1000C000350400083504000835040008350400082C
:1000D000350400083504000835040008350400081C
:1000E000350400083504000835040008350400080C
:1000F00035040008350400083504000835040008FC
:1001000035040008350400083504000835040008EB
:1001100035040008350400083504000835040008DB
:1001200035040008350400083504000835040008CB
:1001300035040008350400083504000835040008BB
:1001400035040008350400083504000835040008AB
:10015000350400083504000835040008350400089B
:10016000350400083504000835040008350400088B
:10017000350400083504000835040008350400087B
:10018000350400083504000880B582B000AF00F0E7
:100190000FF900233B710223FB7100237B710120C7
:1001A000012100F075FC3B46184600F077FD49F64A
:1001B000FF733B6000233B710023FB7103237B71C2
:1001C0003B460020C4F20200194600F0D9FC4FF66D
:1001D000FF733B603B464FF48060C4F20200194657
:1001E00000F0CEFC0120012100F052FC3B461846F5
:1001F00000F054FDC0233B600023BB7102233B7120
:1002000003237B710123FB713B460020C4F20200F3
:10021000194600F0B5FC0820012100F039FC3B46EE
:10022000184600F03BFD40F6FF733B6001233B7135
:100230000023BB710023FB7103237B713B464FF40A
:100240004060C4F20200194600F09AFC4FF470437B
:100250003B6002233B713B464FF44060C4F2020016
:10026000194600F08DFC4FF6FF733B603B464FF4A0
:100270008050C4F20200194600F082FC01233B606A
:1002800000233B710223FB7102237B713B4600205C
:10029000C4F20200194600F073FC4FF4C0533B60F7
:1002A00000233B710023FB7102237B713B4600203E
:1002B000C4F20200194600F063FC10233B603B4689
:1002C0004FF44060C4F20200194600F059FC4FF4AC
:1002D0004060C4F202001021002200F02FFD012333
:1002E0003B6001233B710023BB710023FB710223A0
:1002F0007B713B464FF40060C4F20200194600F0E7
:100300003FFC4FF40060C4F20200012100F0FAFC4F
:1003100020233B6000233B710023FB7100237B7192
:100320003B464FF44060C4F20200194600F028FC3E
:100330000120012100F0ACFB3B46184600F0AEFC6A
:10034000C0233B6002233B710023BB713B4600206E
:10035000C4F20200194600F013FC4FF44060C4F2EE
:1003600002000C21022200F001FD4FF44060C4F2B3
:1003700002000D21022200F0F9FC4FF44060C4F2AB
:1003800002000E21022200F0F1FC4FF44060C4F2A2
:1003900002000F21022200F0E9FC0020C4F202005A
:1003A0000621022200F0E2FC0837BD4680BD00BFF6
:1003B00080B500AF9F20012100F06AFB4FF0805014
:1003C000012100F08DFB4FF48040012100F0B0FBD3
:1003D00080BD00BF80B582B000AF42F28413C0F68A
:1003E00000037B6040F20003C2F200033B6007E0C1
:1003F0003B681A1D3A607A68111D796012681A60AC
:100400003A6840F21403C2F200039A42F0D307485C
:1004100007494FF000028842B8BF40F8042BFADBCE
:1004200000F0D8F80837BD4680BD00001400002059
:100430001800002080B400AFFEE700BF80B483B096
:1004400000AF03463960FB7197F90730002B0EDAD5
:100450004FF46D43CEF20003FA7902F00F02111F40
:100460003A68D2B21201D2B20B441A760CE04FF4C1
:100470006143CEF2000397F907103A68D2B2120135
:10048000D2B20B4483F800230C37BD465DF8047BE1
:10049000704700BF80B582B000AF78607B68B3F171
:1004A000807F01D301231AE04EF21003CEF2000345
:1004B0007A6822F07F42013A5A604FF0FF300F21F4
:1004C000FFF7BCFF4EF21003CEF2000300229A6049
:1004D0004EF21003CEF2000307221A6000231846E2
:1004E0000837BD4680BD00BF80B500AF40F21403A1
:1004F000C2F200031B68184601F0ACFA02460B4634
:100500001046194608A3D3E9002301F045F9024635
:100510000B461046194601F0F1FA024640F2140368
:10052000C2F200031A6080BD7B14AE47E17A743FCB
:1005300080B582B000AF786000F0A6FC40F2000306
:10054000C2F200031B68184601F0DEFB03461846A2
:10055000796801F031FC0346184601F0F3FD0346CB
:100560001846FFF797FF0837BD4680BD80B483B0BB
:1005700000AF00237B6002E07B6801337B607A6818
:100580004EF2FF03C0F2F5539A42F5D90C37BD463F
:100590005DF8047B704700BF80B584B000AFF860A1
:1005A000B9607A607868F96801F0C2FD0346002BF3
:1005B00001D0FB6809E07868B96801F09BFD03464B
:1005C000002B01D0BB6800E07B6818461037BD46A1
:1005D00080BD00BF80B588B002AF4FF000037B61E3
:1005E0004FF000033B614FF00003FB604FF000034E
:1005F000BB604FF00003C4F2B4237B6000F0FCFB4F
:10060000FFF7D6FEFFF7C0FD4DF20A70C3F6A33028
:10061000FFF78EFF00F0B2F87B68009378693969C4
:10062000FA68BB6800F01AF94FF44060C4F20200A7
:10063000012100F067FB4FF44060C4F20200022188
:1006400000F06EFB40F21403C2F200031B68184670
:100650004FF07E5101F062FD0346002B32D040F294
:100660001403C2F200034FF000021A60B8684FF0A2
:100670000001C4F2A00101F097FA0346BB6078695B
:100680004FF00001C4F2201101F08EFA03467B61A5
:1006900038694FF00001C4F2A01101F085FA034659
:1006A0003B61F8684FF00001C4F2F01101F07CFAF0
:1006B0000346FB607B68009378693969FA68BB6818
:1006C00000F0CCF80020C4F20200012100F000FB91
:1006D0000346002B50D04FF44060C4F202004FF4A8
:1006E000805100F00FFBFFF741FF4FF44060C4F270
:1006F00002004FF4805100F013FBFFF737FF4FF477
:100700004060C4F202004FF4005100F0FBFAFFF722
:100710002DFF4FF44060C4F202004FF4005100F08E
:10072000FFFAFFF723FF4FF44060C4F202004FF4DA
:10073000804100F0E7FAFFF719FF4FF44060C4F280
:1007400002004FF4804100F0EBFAFFF70FFF4FF487
:100750004060C4F202004FF4004100F0D3FAFFF70A
:1007600005FF4FF44060C4F202004FF4004100F076
:10077000D7FAFFF7FBFE65E764E700BF80B58AB0F4
:1007800000AF0023FB840420012100F0A9F900231D
:100790003B8300237B8342F2CF03FB6100233B8436
:1007A000002387F8223007F118034FF40060C4F2E9
:1007B0000000194600F0D0FC4FF40060C4F20000C5
:1007C000012100F05FFD40F20003C2F200031B684C
:1007D0005A0A4BF22323C0F24C03A3FB0213DB099A
:1007E0009BB2013BFB844FF47A73FB6100233B8394
:1007F00000233B8400237B8307F118034FF48060C0
:10080000C4F20000194600F0A7FC6023BB8001235E
:10081000FB800023FB6000233B823B1D4FF4806084
:10082000C4F20000194600F04DFD4FF48060C4F2A0
:100830000000082100F036FF4FF48060C4F2000091
:10084000012100F0FFFC4FF48060C4F200000121A0
:1008500000F018FD2837BD4680BD00BF80B58AB0C6
:1008600000AFF860B9607A603B607023BB820123FF
:10087000FB8202233B844FF00000C4F2C6204FF0FD
:100880000001FA68FFF788FEF860F8684FF48041CD
:10089000C4F2036101F090FA034618464FF00001DC
:1008A000C4F2C82101F03CFB034618464FF07E51CC
:1008B00001F078F90346184601F044FC0346FB6159
:1008C00007F114034FF40060C4F20000194600F071
:1008D000F9FC4FF40060C4F20000082100F0E2FED1
:1008E0004FF00000C4F2C6204FF00001BA68FFF7D5
:1008F00053FEB860B8684FF48041C4F2036101F060
:100900005BFA034618464FF00001C4F2C82101F01B
:1009100007FB034618464FF07E5101F043F90346AA
:10092000184601F00FFC0346FB6107F114034FF476
:100930000060C4F20000194600F03EFD4FF4006074
:10094000C4F20000082100F0C9FE4FF00000C4F21C
:10095000C6204FF000017A68FFF71EFE78607868C5
:100960004FF48041C4F2036101F026FA03461846B1
:100970004FF00001C4F2C82101F0D2FA0346184634
:100980004FF07E5101F00EF90346184601F0DAFBF4
:100990000346FB6107F114034FF40060C4F200004A
:1009A000194600F091FD4FF40060C4F200000821E8
:1009B00000F0B2FE4FF00000C4F2C6204FF000017C
:1009C0003A68FFF7E9FD386038684FF48041C4F2B7
:1009D000036101F0F1F9034618464FF00001C4F23B
:1009E000C82101F09DFA034618464FF07E5101F0F0
:1009F000D9F80346184601F0A5FB0346FB6107F151
:100A000014034FF40060C4F20000194600F0E2FD48
:100A10004FF40060C4F20000082100F099FE4FF08E
:100A20000000C4F2C6204FF000013A6BFFF7B4FD9E
:100A30003863386B4FF48041C4F2036101F0BCF9B4
:100A4000034618464FF00001C4F2C82101F068FACD
:100A5000034618464FF07E5101F0A4F803461846AD
:100A600001F070FB0346FB6107F114034FF4806053
:100A7000C4F20000194600F025FC4FF48060C4F277
:100A80000000082100F00EFE2837BD4680BD00BFE3
:100A900080B483B000AF78600B46FB70FB78002B0E
:100AA0000CD04FF46053C4F202034FF46052C4F20E
:100AB0000202116B7A680A431A630CE04FF4605328
:100AC000C4F202034FF46052C4F20202116B7A685E
:100AD000D2430A401A630C37BD465DF8047B704769
:100AE00080B483B000AF78600B46FB70FB78002BBE
:100AF0000CD04FF46053C4F202034FF46052C4F2BE
:100B00000202116C7A680A431A640CE04FF46053D5
:100B1000C4F202034FF46052C4F20202116C7A680C
:100B2000D2430A401A640C37BD465DF8047B704717
:100B300080B483B000AF78600B46FB70FB78002B6D
:100B40000CD04FF46053C4F202034FF46052C4F26D
:100B50000202516C7A680A435A640CE04FF4605305
:100B6000C4F202034FF46052C4F20202516C7A687C
:100B7000D2430A405A640C37BD465DF8047B704787
:100B800080B487B000AF7860396000237B610023B8
:100B90003B610023FB6000237B6176E07B690122DF
:100BA00002FA03F33B613B681A683B691340FB6040
:100BB000FA683B699A4265D17B681A687B695B0079
:100BC000032101FA03F3DB431A407B681A607B6858
:100BD0001A683B681B7919467B695B0001FA03F3CD
:100BE0001A437B681A603B681B79012B03D03B6872
:100BF0001B79022B2ED17B689A687B695B000321ED
:100C000001FA03F3DB431A407B689A607B689A68B9
:100C10003B685B7919467B695B0001FA03F31A4371
:100C20007B689A607B685A687B699BB2012101FAF4
:100C300003F3DB431A407B685A607B685A683B6861
:100C40009B7919467B699BB201FA03F39BB21A4365
:100C50007B685A607B68DA687B699BB25B00032122
:100C600001FA03F3DB431A407B68DA607B68DA68D9
:100C70003B68DB7919467B695B0001FA03F31A4391
:100C80007B68DA607B6901337B617B690F2B85D9D7
:100C90001C37BD465DF8047B704700BF80B483B04D
:100CA00000AF78607B684FF6FF721A607B680022A5
:100CB0001A717B6800225A717B6800229A717B68E6
:100CC0000022DA710C37BD465DF8047B704700BF27
:100CD00080B485B000AF78600B467B800023FB7347
:100CE0007B681A697B881340002B02D00123FB73B9
:100CF00001E00023FB73FB7B18461437BD465DF80B
:100D0000047B704780B483B000AF78600B467B8073
:100D10007B687A881A830C37BD465DF8047B704780
:100D200080B483B000AF78600B467B807B687A88A4
:100D30005A830C37BD465DF8047B704780B483B09E
:100D400000AF786013460A467A807B707B78002B70
:100D500003D07B687A881A8302E07B687A885A839A
:100D60000C37BD465DF8047B704700BF80B485B08A
:100D700000AF786013460A467A807B700023FB60E0
:100D80000023BB607A787B8803F007039B0002FA9C
:100D900003F3FB607B88DB089BB21A467B88DB0889
:100DA0009BB219467B68083153F821107B8803F009
:100DB00007039B000F2000FA03F3DB4319407B6815
:100DC000083243F822107B88DB089BB21A467B6806
:100DD000083253F82220FB681343BB607B88DB0892
:100DE0009BB21A467B680832B96843F82210143760
:100DF000BD465DF8047B704780B500AF4FF460538B
:100E0000C4F202034FF46052C4F20202126842F0CC
:100E100001021A604FF46053C4F2020300229A6088
:100E20004FF46053C4F202034FF46052C4F2020262
:100E3000126822F0847222F480321A604FF46053F8
:100E4000C4F2020343F21002C2F200425A604FF4AD
:100E50006053C4F202034FF46052C4F202021268FB
:100E600022F480221A604FF46053C4F2020300227D
:100E7000DA6000F0B3F84FF46D43CEF200034FF0A8
:100E800000629A6080BD00BF80B487B000AF0023CD
:100E90003B6100237B610223FB600023BB600223D4
:100EA0007B604FF46053C4F202039B6803F00C03B1
:100EB0003B613B69042B0DD0082B15D0002B63D16F
:100EC00040F20003C2F200034FF41052C0F2F402E9
:100ED0001A6063E040F20003C2F200034FF4905244
:100EE000C0F27A021A6059E04FF46053C4F2020370
:100EF0005B6803F480039B0DBB604FF46053C4F246
:100F000002035B6803F03F037B60BB68002B13D0D8
:100F10004FF49053C0F27A037A68B3FBF2F24FF4C5
:100F20006053C4F20203596847F6C0730B409B0933
:100F300003FB02F37B6112E04FF41053C0F2F403A1
:100F40007A68B3FBF2F24FF46053C4F202035968BB
:100F500047F6C0730B409B0903FB02F37B614FF420
:100F60006053C4F202035B6803F440331B0C01338B
:100F70005B00FB607A69FB68B2FBF3F240F20003AE
:100F8000C2F200031A6009E040F20003C2F200035B
:100F90004FF41052C0F2F4021A6000BF4FF46053D5
:100FA000C4F202039B6803F0F0031A0940F2040341
:100FB000C2F200039B5CDBB23B6140F20003C2F271
:100FC00000031A683B69DA4040F20003C2F20003F2
:100FD0001A601C37BD465DF8047B704780B483B04F
:100FE00000AF00237B6000233B604FF46053C4F2EA
:100FF00002034FF46052C4F20202126842F48032DB
:101000001A604FF46053C4F202031B6803F4003308
:101010003B607B6801337B603B68002B03D17B68BE
:10102000B3F5A06FEDD14FF46053C4F202031B6817
:1010300003F40033002B02D001233B6001E00023C6
:101040003B603B68012B40F082804FF46053C4F258
:1010500002034FF46052C4F20202126C42F080525A
:101060001A644FF4E043C4F200034FF4E042C4F2C8
:101070000002126842F480421A604FF46053C4F2D6
:1010800002034FF46052C4F2020292689A604FF475
:101090006053C4F202034FF46052C4F20202926839
:1010A00042F400429A604FF46053C4F202034FF4DA
:1010B0006052C4F20202926842F4A0529A604FF465
:1010C0006053C4F2020345F20842C0F240725A6013
:1010D0004FF46053C4F202034FF46052C4F20202B0
:1010E000126842F080721A6000BF4FF46053C4F27D
:1010F00002031B6803F00073002BF6D04FF470530B
:10110000C4F2020340F205621A604FF46053C4F265
:1011100002034FF46052C4F20202926822F003020A
:101120009A604FF46053C4F202034FF46052C4F269
:101130000202926842F002029A6000BF4FF46053CC
:10114000C4F202039B6803F00C03082BF6D10C37A2
:10115000BD465DF8047B704780B485B000AF786011
:1011600039600023FB817B681B88FB817A68002340
:10117000C4F201039A421FD07A684FF48063C4F22C
:1011800001039A4218D07B68B3F1804F14D07A687B
:101190004FF48063C4F200039A420DD07A684FF492
:1011A0000063C4F200039A4206D07A684FF44063A9
:1011B000C4F200039A4208D1FB8923F07003FB813B
:1011C0003B685A88FB891343FB817A684FF480534C
:1011D000C4F200039A420FD07A684FF4A053C4F2CD
:1011E00000039A4208D0FB8923F44073FB813B68DB
:1011F0001A89FB891343FB817B68FA891A803B6853
:101200005A687B68DA623B681A887B681A857A6854
:101210000023C4F201039A4206D07A684FF4806337
:10122000C4F201039A4204D13B689B7A1A467B6858
:101230001A867B6801229A821437BD465DF8047BCA
:10124000704700BF80B483B000AF78600B46FB707E
:10125000FB78002B08D07B681B889BB243F080038F
:101260009AB27B681A8007E07B681B889BB223F0E8
:1012700080039AB27B681A800C37BD465DF8047B08
:10128000704700BF80B483B000AF78600B46FB703E
:10129000FB78002B08D07B681B889BB243F00103CE
:1012A0009AB27B681A8007E07B681B889BB223F0A8
:1012B00001039AB27B681A800C37BD465DF8047B47
:1012C000704700BF80B485B000AF786039600023FC
:1012D0007B810023FB810023BB817B681B8C9BB23D
:1012E00023F001039AB27B681A847B681B8CFB8114
:1012F0007B689B88BB817B681B8B7B817B8923F010
:1013000070037B817B8923F003037B813B681A8810
:101310007B8913437B81FB8923F00203FB813B68BC
:101320009A89FB891343FB813B685A88FB891343E5
:10133000FB817A680023C4F201039A4206D07A68DE
:101340004FF48063C4F201039A4223D1FB8923F056
:101350000803FB813B68DA89FB891343FB81FB8926
:1013600023F00403FB813B689A88FB891343FB81CC
:10137000BB8923F48073BB81BB8923F40073BB81D9
:101380003B681A8ABB891343BB813B685A8ABB8975
:101390001343BB817B68BA899A807B687A891A83F8
:1013A0003B689A687B685A637B68FA891A841437A9
:1013B000BD465DF8047B704780B485B000AF7860AF
:1013C000396000237B810023FB810023BB817B6884
:1013D0001B8C9BB223F010039AB27B681A847B6843
:1013E0001B8CFB817B689B88BB817B681B8B7B8113
:1013F0007B8923F4E0437B817B8923F440737B81E9
:101400003B681B881B029AB27B8913437B81FB8953
:1014100023F02003FB813B689B891B019AB2FB8967
:101420001343FB813B685B881B019AB2FB89134322
:10143000FB817A680023C4F201039A4206D07A68DD
:101440004FF48063C4F201039A422BD1FB8923F04D
:101450008003FB813B68DB891B019AB2FB89134344
:10146000FB81FB8923F04003FB813B689B881B01C8
:101470009AB2FB891343FB81BB8923F48063BB8150
:10148000BB8923F40063BB813B681B8A9B009AB233
:10149000BB891343BB813B685B8A9B009AB2BB89C3
:1014A0001343BB817B68BA899A807B687A891A83E7
:1014B0003B689A687B689A637B68FA891A84143758
:1014C000BD465DF8047B704780B485B000AF78609E
:1014D000396000237B810023FB810023BB817B6873
:1014E0001B8C9BB223F480739AB27B681A847B684E
:1014F0001B8CFB817B689B88BB817B689B8B7B8182
:101500007B8923F070037B817B8923F003037B813C
:101510003B681A887B8913437B81FB8923F4007322
:10152000FB813B689B891B029AB2FB891343FB81B9
:101530003B685B881B029AB2FB891343FB817A6884
:101540000023C4F201039A4206D07A684FF4806304
:10155000C4F201039A422BD1FB8923F40063FB817F
:101560003B68DB891B029AB2FB891343FB81FB8931
:1015700023F48063FB813B689B881B029AB2FB8942
:101580001343FB81BB8923F48053BB81BB8923F4C4
:101590000053BB813B681B8A1B019AB2BB89134372
:1015A000BB813B685B8A1B019AB2BB891343BB8139
:1015B0007B68BA899A807B687A899A833B689A6843
:1015C0007B68DA637B68FA891A841437BD465DF854
:1015D000047B704780B485B000AF78603960002329
:1015E000BB8100237B810023FB817B681B8C9BB22A
:1015F00023F480539AB27B681A847B681B8C7B81AE
:101600007B689B88FB817B689B8BBB81BB8923F4B8
:10161000E043BB81BB8923F44073BB813B681B88DB
:101620001B029AB2BB891343BB817B8923F400530D
:101630007B813B689B891B039AB27B8913437B8127
:101640003B685B881B039AB27B8913437B817A6872
:101650000023C4F201039A4206D07A684FF48063F3
:10166000C4F201039A420AD1FB8923F48043FB812F
:101670003B681B8A9B019AB2FB891343FB817B6801
:10168000FA899A807B68BA899A833B689A687B68F2
:101690001A647B687A891A841437BD465DF8047B26
:1016A000704700BF80B485B000AF78600B467B8088
:1016B0000023FB817B681B8BFB81FB8923F00803E4
:1016C000FB81FA897B881343FB817B68FA891A8343
:1016D0001437BD465DF8047B704700BF80B485B009
:1016E00000AF78600B467B800023FB817B681B8BFF
:1016F000FB81FB8923F40063FB817B881B029AB288
:10170000FB891343FB817B68FA891A831437BD4632
:101710005DF8047B704700BF80B485B000AF78608F
:101720000B467B800023FB817B689B8BFB81FB89C5
:1017300023F00803FB81FA897B881343FB817B68D4
:10174000FA899A831437BD465DF8047B704700BF61
:1017500080B485B000AF78600B467B800023FB81AE
:101760007B689B8BFB81FB8923F40063FB817B8877
:101770001B029AB2FB891343FB817B68FA899A8327
:101780001437BD465DF8047B704700BF81F000410F
:1017900002E000BF83F0004330B54FEA41044FEA56
:1017A000430594EA050F08BF90EA020F1FBF54EAF1
:1017B000000C55EA020C7FEA645C7FEA655C00F08D
:1017C000E2804FEA5454D4EB5555B8BF6D420CDD5E
:1017D0002C4480EA020281EA030382EA000083EAE1
:1017E000010180EA020281EA0303362D88BF30BD81
:1017F00011F0004F4FEA01314FF4801C4CEA1131D7
:1018000002D0404261EB410113F0004F4FEA033335
:101810004CEA133302D0524263EB430394EA050FC0
:1018200000F0A780A4F10104D5F1200E0DDB02FA2F
:101830000EFC22FA05F2801841F1000103FA0EF2C3
:10184000801843FA05F359410EE0A5F120050EF189
:10185000200E012A03FA0EFC28BF4CF0020C43FABA
:1018600005F3C01851EBE37101F0004507D54FF0C7
:10187000000EDCF1000C7EEB00006EEB0101B1F517
:10188000801F1BD3B1F5001F0CD349085FEA30005D
:101890004FEA3C0C04F101044FEA445212F5800F68
:1018A00080F09A80BCF1004F08BF5FEA500C50F105
:1018B000000041EB045141EA050130BD5FEA4C0CE8
:1018C000404141EB010111F4801FA4F10104E9D171
:1018D00091F0000F04BF01460020B1FA81F308BF68
:1018E0002033A3F10B03B3F120020CDA0C3208DD34
:1018F00002F1140CC2F10C0201FA0CF021FA02F10F
:101900000CE002F11402D8BFC2F1200C01FA02F17E
:1019100020FA0CFCDCBF41EA0C019040E41AA2BFA3
:1019200001EB0451294330BD6FEA04041F3C1CDA6B
:101930000C340EDC04F11404C4F1200220FA04F08B
:1019400001FA02F340EA030021FA04F345EA030135
:1019500030BDC4F10C04C4F1200220FA02F001FAF7
:1019600004F340EA0300294630BD21FA04F0294679
:1019700030BD94F0000F83F4801306BF81F4801112
:101980000134013D4EE77FEA645C18BF7FEA655C85
:1019900029D094EA050F08BF90EA020F05D054EA57
:1019A000000C04BF1946104630BD91EA030F1EBF5C
:1019B0000021002030BD5FEA545C05D14000494160
:1019C00028BF41F0004130BD14F580043CBF01F553
:1019D000801130BD01F0004545F0FE4141F4700139
:1019E0004FF0000030BD7FEA645C1ABF1946104614
:1019F0007FEA655C1CBF0B46024650EA013406BF15
:101A000052EA033591EA030F41F4002130BD00BFD3
:101A100090F0000F04BF0021704730B54FF4806490
:101A200004F132044FF000054FF0000150E700BF11
:101A300090F0000F04BF0021704730B54FF4806470
:101A400004F1320410F0004548BF40424FF000015D
:101A50003EE700BF42004FEAE2014FEA31014FEAA0
:101A600002701FBF12F07F4393F07F4F81F06051EF
:101A7000704792F0000F14BF93F07F4F704730B55E
:101A80004FF4607401F0004521F0004120E700BFF1
:101A900050EA010208BF704730B54FF000050AE078
:101AA00050EA010208BF704730B511F0004502D579
:101AB000404261EB41014FF4806404F132045FEA7B
:101AC000915C3FF4DCAE4FF003025FEADC0C18BF20
:101AD00003325FEADC0C18BF033202EBDC02C2F116
:101AE000200300FA03FC20FA02F001FA03FE40EAA8
:101AF0000E0021FA02F11444C1E600BF4FEA410290
:101B0000B2F1E04324BFB3F5001CDCF1FE5C0DD95B
:101B100001F0004C4FEAC0024CEA5070B2F1004FA5
:101B200040EB830008BF20F00100704711F0804FA8
:101B300021D113F13872BCBF01F00040704741F46D
:101B400080114FEA5252C2F11802C2F1200C10FA71
:101B50000CF320FA02F018BF40F001004FEAC12355
:101B60004FEAD32303FA0CFC40EA0C0023FA02F3F9
:101B70004FEA4303CCE77FEA625307D150EA0133CF
:101B80001EBF4FF0FE4040F44000704701F000409F
:101B900040F0FE4040F40000704700BF80F000407D
:101BA00002E000BF81F0004142001FBF5FEA410335
:101BB00092EA030F7FEA226C7FEA236C6AD04FEA35
:101BC0001262D2EB1363C1BFD2184140484041407A
:101BD000B8BF5B42192B88BF704710F0004F40F42C
:101BE000000020F07F4018BF404211F0004F41F448
:101BF000000121F07F4118BF494292EA030F3FD014
:101C0000A2F1010241FA03FC10EB0C00C3F1200326
:101C100001FA03F100F0004302D5494260EB4000B5
:101C2000B0F5000F13D3B0F1807F06D340084FEA20
:101C3000310102F10102FE2A51D2B1F1004F40EB15
:101C4000C25008BF20F0010040EA0300704749007D
:101C500040EB000010F4000FA2F10102EDD1B0FA48
:101C600080FCACF1080CB2EB0C0200FA0CF0AABF3D
:101C700000EBC25052421843BCBFD04018437047DB
:101C800092F0000F81F4000106BF80F400000132E1
:101C9000013BB5E74FEA41037FEA226C18BF7FEAB8
:101CA000236C21D092EA030F04D092F0000F08BFFA
:101CB0000846704790EA010F1CBF0020704712F0E1
:101CC0007F4F04D1400028BF40F00040704712F120
:101CD00000723CBF00F50000704700F0004343F085
:101CE000FE4040F4000070477FEA226216BF0846BB
:101CF0007FEA23630146420206BF5FEA412390EA7E
:101D0000010F40F4800070474FF0000304E000BF73
:101D100010F0004348BF40425FEA000C08BF704724
:101D200043F0964301464FF000001CE050EA0102E8
:101D300008BF70474FF000030AE000BF50EA0102FD
:101D400008BF704711F0004302D5404261EB4101EA
:101D50005FEA010C02BF84460146002043F0B6430F
:101D600008BFA3F18053A3F50003BCFA8CF2083A34
:101D7000A3EBC25310DB01FA02FC634400FA02FC3D
:101D8000C2F12002BCF1004F20FA02F243EB020044
:101D900008BF20F00100704702F1200201FA02FCA6
:101DA000C2F1200250EA4C0021FA02F243EB020099
:101DB00008BF20EADC7070474FF0FF0C1CEAD052DD
:101DC0001EBF1CEAD15392EA0C0F93EA0C0F6FD09E
:101DD0001A4480EA010C400218BF5FEA41211ED07C
:101DE0004FF0006343EA501043EA5111A0FB013168
:101DF0000CF00040B1F5000F3EBF490041EAD3713D
:101E00005B0040EA010062F17F02FD2A1DD8B3F1B8
:101E1000004F40EBC25008BF20F00100704790F027
:101E2000000F0CF0004C08BF49024CEA502040EA79
:101E300051207F3AC2BFD2F1FF0340EAC25070473F
:101E400040F400004FF00003013A5DDC12F1190F7D
:101E5000DCBF00F000407047C2F10002410021FAEF
:101E600002F1C2F1200200FA02FC5FEA310040F107
:101E7000000053EA4C0308BF20EADC70704792F080
:101E8000000F00F0004C02BF400010F4000F013AB8
:101E9000F9D040EA0C0093F0000F01F0004C02BFB3
:101EA000490011F4000F013BF9D041EA0C018FE722
:101EB0000CEAD15392EA0C0F18BF93EA0C0F0AD028
:101EC00030F0004C18BF31F0004CD8D180EA01004E
:101ED00000F00040704790F0000F17BF90F0004FE7
:101EE000084691F0000F91F0004F14D092EA0C0FC9
:101EF00001D142020FD193EA0C0F03D14B0218BF5C
:101F0000084608D180EA010000F0004040F0FE40A1
:101F100040F40000704740F0FE4040F4400070473D
:101F20004FF0FF0C1CEAD0521EBF1CEAD15392EABC
:101F30000C0F93EA0C0F69D0A2EB030280EA010CAC
:101F400049024FEA402037D04FF0805343EA111145
:101F500043EA10130CF000408B4238BF5B0042F1A3
:101F60007D024FF4000C8B4224BF5B1A40EA0C0048
:101F7000B3EB510F24BFA3EB510340EA5C00B3EB7A
:101F8000910F24BFA3EB910340EA9C00B3EBD10F68
:101F900024BFA3EBD10340EADC001B0118BF5FEABA
:101FA0001C1CE0D1FD2A3FF650AF8B4240EBC250E3
:101FB00008BF20F0010070470CF0004C4CEA5020A4
:101FC0007F32C2BFD2F1FF0340EAC250704740F4F3
:101FD00000004FF00003013A37E792F0000F00F0E5
:101FE000004C02BF400010F4000F013AF9D040EA63
:101FF0000C0093F0000F01F0004C02BF490011F4F7
:10200000000F013BF9D041EA0C0195E70CEAD153EE
:1020100092EA0C0F08D142027FF47DAF93EA0C0FD5
:102020007FF470AF084676E793EA0C0F04D14B02B9
:102030003FF44CAF08466EE730F0004C18BF31F06B
:10204000004CCAD130F000427FF45CAF31F0004365
:102050007FF43CAF5FE700BF4FF0FF3C06E000BFFE
:102060004FF0010C02E000BF4FF0010C4DF804CD21
:102070004FEA40024FEA41037FEA226C18BF7FEA31
:10208000236C11D001B052EA530C18BF90EA010F33
:1020900058BFB2EB030088BFC81738BF6FEAE170C2
:1020A00018BF40F0010070477FEA226C02D15FEA5E
:1020B000402C05D17FEA236CE4D15FEA412CE1D0CA
:1020C0005DF8040B704700BF844608466146FFE791
:1020D0000FB5FFF7C9FF002848BF10F1000F0FBD73
:1020E0004DF808EDFFF7F4FF0CBF012000205DF86C
:1020F00008FB00BF4DF808EDFFF7EAFF34BF0120F1
:1021000000205DF808FB00BF4DF808EDFFF7E0FF89
:1021100094BF012000205DF808FB00BF4DF808EDDA
:10212000FFF7D2FF94BF012000205DF808FB00BF3D
:102130004DF808EDFFF7C8FF34BF012000205DF81F
:1021400008FB00BF42000ED2B2F1FE4F0BD34FF09E
:102150009E03B3EB126209D44FEA002343F000431D
:1021600023FA02F070474FF00000704712F1610F40
:1021700001D1420202D14FF0FF3070474FF0000012
:04218000704700BFE5
:10218400007A030A000000000000000001020304BA
:042194000607080929
:0400000508000000EF
:00000001FF
