:020000040800F2
:100000001808002025030008850300088503000860
:100010008503000885030008850300080000000030
:100020000000000000000000000000008503000840
:10003000850300080000000085030008390400085B
:100040008503000885030008850300088503000870
:100050008503000885030008850300088503000860
:100060008503000885030008850300088503000850
:100070008503000885030008850300088503000840
:100080008503000885030008850300088503000830
:100090008503000885030008850300088503000820
:1000A0008503000885030008850300088503000810
:1000B0008503000885030008850300088503000800
:1000C00085030008850300088503000885030008F0
:1000D00085030008850300088503000885030008E0
:1000E00085030008850300088503000885030008D0
:1000F00085030008850300088503000885030008C0
:1001000085030008850300088503000885030008AF
:10011000850300088503000885030008850300089F
:10012000850300088503000885030008850300088F
:10013000850300088503000885030008850300087F
:10014000850300088503000885030008850300086F
:10015000850300088503000885030008850300085F
:10016000850300088503000885030008850300084F
:10017000850300088503000885030008850300083F
:10018000850300088503000880B582B000AF00F049
:10019000B7F800233B710223FB7100237B71012020
:1001A000012100F023FA3B46184600F025FB49F6F2
:1001B000FF733B6000233B710023FB7103237B71C2
:1001C0003B460020C4F20200194600F087FA4FF6C1
:1001D000FF733B603B464FF48060C4F20200194657
:1001E00000F07CFA43F6FF733B603B464FF400603F
:1001F000C4F20200194600F071FA0820012100F053
:10020000F5F93B46184600F0F7FA4FF6FF733B60EE
:1002100001233B710023BB710023FB7103237B711E
:100220003B464FF44060C4F20200194600F056FA13
:100230004FF6FF733B603B464FF48050C4F2020020
:10024000194600F04BFA01233B6000233B71022367
:10025000FB7102237B713B460020C4F20200194669
:1002600000F03CFA4FF4C0533B6000233B71002385
:10027000FB7102237B713B460020C4F20200194649
:1002800000F02CFA10233B603B464FF44060C4F270
:100290000200194600F022FA4FF44060C4F2020056
:1002A0001021002200F0F8FA01233B6001233B718A
:1002B0000023BB710023FB7102237B713B464FF48B
:1002C0000060C4F20200194600F008FA4FF4006022
:1002D000C4F20200012100F0C3FA20233B60002396
:1002E0003B710023FB7100237B713B464FF4406060
:1002F000C4F20200194600F0F1F90837BD4680BD8E
:1003000080B500AF9F20012100F070F94FF08050C0
:10031000012100F093F94FF48040012100F0B6F97B
:1003200080BD00BF80B582B000AF41F23843C0F657
:1003300000037B6040F20003C2F200033B6007E071
:100340003B681A1D3A607A68111D796012681A605C
:100350003A6840F21403C2F200039A42F0D307480D
:1003600007494FF000028842B8BF40F8042BFADB7F
:1003700000F0BAF80837BD4680BD00001400002028
:100380001800002080B400AFFEE700BF80B483B047
:1003900000AF03463960FB7197F90730002B0EDA86
:1003A0004FF46D43CEF20003FA7902F00F02111FF1
:1003B0003A68D2B21201D2B20B441A760CE04FF472
:1003C0006143CEF2000397F907103A68D2B21201E6
:1003D000D2B20B4483F800230C37BD465DF8047B92
:1003E000704700BF80B582B000AF78607B68B3F122
:1003F000807F01D301231AE04EF21003CEF20003F6
:100400007A6822F07F42013A5A604FF0FF300F21A4
:10041000FFF7BCFF4EF21003CEF2000300229A60F9
:100420004EF21003CEF2000307221A600023184692
:100430000837BD4680BD00BF80B500AF40F2140351
:10044000C2F200031B68184600F05EFC02460B4631
:100450001046194608A3D3E9002300F0F7FA024634
:100460000B461046194600F0A3FC024640F2140366
:10047000C2F200031A6080BD7B14AE47E17A743F7C
:1004800080B582B000AF786000F030FA40F200032F
:10049000C2F200031B68184600F090FD03461846A0
:1004A000796800F0E3FD0346184600F0A5FF034617
:1004B0001846FFF797FF0837BD4680BD80B483B06C
:1004C00000AF00237B6002E07B6801337B607A68C9
:1004D00044F23F23C0F20F039A42F5D90C37BD46D0
:1004E0005DF8047B704700BF80B500AFFFF74CFE9E
:1004F0004DF20A70C3F6A330FFF7C2FF40F21403B7
:10050000C2F200031B6818464FF07E5100F060FFF6
:100510000346002B0ED040F21403C2F200034FF04A
:1005200000021A604FF44060C4F202004FF4005120
:1005300000F0CAF90020C4F20200012100F076F9AF
:100540000346002B50D04FF44060C4F202004FF439
:10055000805100F085F9FFF7B1FF4FF44060C4F21D
:1005600002004FF4805100F089F9FFF7A7FF4FF424
:100570004060C4F202004FF4005100F071F9FFF73F
:100580009DFF4FF44060C4F202004FF4005100F0B0
:1005900075F9FFF793FF4FF44060C4F202004FF487
:1005A000804100F05DF9FFF789FF4FF44060C4F22D
:1005B00002004FF4804100F061F9FFF77FFF4FF434
:1005C0004060C4F202004FF4004100F049F9FFF727
:1005D00075FF4FF44060C4F202004FF4004100F098
:1005E0004DF9FFF76BFF89E788E700BF80B483B060
:1005F00000AF78600B46FB70FB78002B0CD04FF4FB
:100600006053C4F202034FF46052C4F20202116B51
:100610007A680A431A630CE04FF46053C4F2020391
:100620004FF46052C4F20202116B7A68D2430A405E
:100630001A630C37BD465DF8047B704780B483B005
:1006400000AF78600B46FB70FB78002B0CD04FF4AA
:100650006053C4F202034FF46052C4F20202116C00
:100660007A680A431A640CE04FF46053C4F2020340
:100670004FF46052C4F20202116C7A68D2430A400D
:100680001A640C37BD465DF8047B704780B483B0B4
:1006900000AF78600B46FB70FB78002B0CD04FF45A
:1006A0006053C4F202034FF46052C4F20202516C70
:1006B0007A680A435A640CE04FF46053C4F20203B0
:1006C0004FF46052C4F20202516C7A68D2430A407D
:1006D0005A640C37BD465DF8047B704780B487B020
:1006E00000AF7860396000237B6100233B61002309
:1006F000FB6000237B6176E07B69012202FA03F351
:100700003B613B681A683B691340FB60FA683B69D0
:100710009A4265D17B681A687B695B00032101FA04
:1007200003F3DB431A407B681A607B681A683B68F6
:100730001B7919467B695B0001FA03F31A437B6856
:100740001A603B681B79012B03D03B681B79022B95
:100750002ED17B689A687B695B00032101FA03F361
:10076000DB431A407B689A607B689A683B685B79D8
:1007700019467B695B0001FA03F31A437B689A60B0
:100780007B685A687B699BB2012101FA03F3DB4362
:100790001A407B685A607B685A683B689B791946A7
:1007A0007B699BB201FA03F39BB21A437B685A60E0
:1007B0007B68DA687B699BB25B00032101FA03F373
:1007C000DB431A407B68DA607B68DA683B68DB7978
:1007D00019467B695B0001FA03F31A437B68DA6010
:1007E0007B6901337B617B690F2B85D91C37BD4643
:1007F0005DF8047B704700BF80B483B000AF7860C1
:100800007B684FF6FF721A607B6800221A717B6862
:1008100000225A717B6800229A717B680022DA718B
:100820000C37BD465DF8047B704700BF80B485B0CF
:1008300000AF78600B467B800023FB737B681A69EE
:100840007B881340002B02D00123FB7301E00023BF
:10085000FB73FB7B18461437BD465DF8047B70477D
:1008600080B483B000AF78600B467B807B687A8869
:100870001A830C37BD465DF8047B704780B483B0A3
:1008800000AF78600B467B807B687A885A830C3790
:10089000BD465DF8047B704780B483B000AF7860DC
:1008A00013460A467A807B707B78002B03D07B68E6
:1008B0007A881A8302E07B687A885A830C37BD46AF
:1008C0005DF8047B704700BF80B483B000AF7860F0
:1008D0000B467B807B685A697B885A407B685A61EB
:1008E0000C37BD465DF8047B704700BF80B487B00D
:1008F00000AF00233B6100237B610223FB600023E8
:10090000BB6002237B604FF46053C4F202039B6818
:1009100003F00C033B613B69042B0DD0082B15D071
:10092000002B63D140F20003C2F200034FF41052D7
:10093000C0F2F4021A6063E040F20003C2F2000366
:100940004FF49052C0F27A021A6059E04FF46053AB
:10095000C4F202035B6803F480039B0DBB604FF499
:100960006053C4F202035B6803F03F037B60BB6823
:10097000002B13D04FF49053C0F27A037A68B3FB84
:10098000F2F24FF46053C4F20203596847F6C073A1
:100990000B409B0903FB02F37B6112E04FF4105301
:1009A000C0F2F4037A68B3FBF2F24FF46053C4F27E
:1009B0000203596847F6C0730B409B0903FB02F31F
:1009C0007B614FF46053C4F202035B6803F440336D
:1009D0001B0C01335B00FB607A69FB68B2FBF3F22E
:1009E00040F20003C2F200031A6009E040F2000383
:1009F000C2F200034FF41052C0F2F4021A6000BFBA
:100A00004FF46053C4F202039B6803F0F0031A0929
:100A100040F20403C2F200039B5CDBB23B6140F294
:100A20000003C2F200031A683B69DA4040F2000397
:100A3000C2F200031A601C37BD465DF8047B7047A4
:100A400081F0004102E000BF83F0004330B54FEA7F
:100A500041044FEA430594EA050F08BF90EA020FEC
:100A60001FBF54EA000C55EA020C7FEA645C7FEA7F
:100A7000655C00F0E2804FEA5454D4EB5555B8BFA2
:100A80006D420CDD2C4480EA020281EA030382EA13
:100A9000000083EA010180EA020281EA0303362DA5
:100AA00088BF30BD11F0004F4FEA01314FF4801C78
:100AB0004CEA113102D0404261EB410113F0004F8A
:100AC0004FEA03334CEA133302D0524263EB430341
:100AD00094EA050F00F0A780A4F10104D5F1200EDF
:100AE0000DDB02FA0EFC22FA05F2801841F100013A
:100AF00003FA0EF2801843FA05F359410EE0A5F10E
:100B000020050EF1200E012A03FA0EFC28BF4CF03E
:100B1000020C43FA05F3C01851EBE37101F00045F4
:100B200007D54FF0000EDCF1000C7EEB00006EEB01
:100B30000101B1F5801F1BD3B1F5001F0CD349088B
:100B40005FEA30004FEA3C0C04F101044FEA4452E2
:100B500012F5800F80F09A80BCF1004F08BF5FEA69
:100B6000500C50F1000041EB045141EA050130BD49
:100B70005FEA4C0C404141EB010111F4801FA4F1EC
:100B80000104E9D191F0000F04BF01460020B1FA41
:100B900081F308BF2033A3F10B03B3F120020CDA79
:100BA0000C3208DD02F1140CC2F10C0201FA0CF057
:100BB00021FA02F10CE002F11402D8BFC2F1200CBC
:100BC00001FA02F120FA0CFCDCBF41EA0C01904072
:100BD000E41AA2BF01EB0451294330BD6FEA0404BB
:100BE0001F3C1CDA0C340EDC04F11404C4F12002A6
:100BF00020FA04F001FA02F340EA030021FA04F3B8
:100C000045EA030130BDC4F10C04C4F1200220FA0E
:100C100002F001FA04F340EA0300294630BD21FA4C
:100C200004F0294630BD94F0000F83F4801306BF12
:100C300081F480110134013D4EE77FEA645C18BF06
:100C40007FEA655C29D094EA050F08BF90EA020F9D
:100C500005D054EA000C04BF1946104630BD91EA95
:100C6000030F1EBF0021002030BD5FEA545C05D198
:100C70004000494128BF41F0004130BD14F58004D7
:100C80003CBF01F5801130BD01F0004545F0FE414B
:100C900041F470014FF0000030BD7FEA645C1ABF80
:100CA000194610467FEA655C1CBF0B46024650EAB7
:100CB000013406BF52EA033591EA030F41F40021E3
:100CC00030BD00BF90F0000F04BF0021704730B569
:100CD0004FF4806404F132044FF000054FF000013E
:100CE00050E700BF90F0000F04BF0021704730B5FF
:100CF0004FF4806404F1320410F0004548BF4042D4
:100D00004FF000013EE700BF42004FEAE2014FEA28
:100D100031014FEA02701FBF12F07F4393F07F4F03
:100D200081F06051704792F0000F14BF93F07F4F35
:100D3000704730B54FF4607401F0004521F0004178
:100D400020E700BF50EA010208BF704730B54FF0FE
:100D500000050AE050EA010208BF704730B511F003
:100D6000004502D5404261EB41014FF4806404F13B
:100D700032045FEA915C3FF4DCAE4FF003025FEABD
:100D8000DC0C18BF03325FEADC0C18BF033202EB45
:100D9000DC02C2F1200300FA03FC20FA02F001FA9F
:100DA00003FE40EA0E0021FA02F11444C1E600BF3E
:100DB0004FEA4102B2F1E04324BFB3F5001CDCF17D
:100DC000FE5C0DD901F0004C4FEAC0024CEA5070B5
:100DD000B2F1004F40EB830008BF20F001007047E4
:100DE00011F0804F21D113F13872BCBF01F00040E7
:100DF000704741F480114FEA5252C2F11802C2F119
:100E0000200C10FA0CF320FA02F018BF40F0010099
:100E10004FEAC1234FEAD32303FA0CFC40EA0C004B
:100E200023FA02F34FEA4303CCE77FEA625307D188
:100E300050EA01331EBF4FF0FE4040F440007047BF
:100E400001F0004040F0FE4040F40000704700BF59
:100E500080F0004002E000BF81F0004142001FBF6F
:100E60005FEA410392EA030F7FEA226C7FEA236C78
:100E70006AD04FEA1262D2EB1363C1BFD21841406D
:100E800048404140B8BF5B42192B88BF704710F003
:100E9000004F40F4000020F07F4018BF404211F0A6
:100EA000004F41F4000121F07F4118BF494292EA0E
:100EB000030F3FD0A2F1010241FA03FC10EB0C003A
:100EC000C3F1200301FA03F100F0004302D54942C7
:100ED00060EB4000B0F5000F13D3B0F1807F06D374
:100EE00040084FEA310102F10102FE2A51D2B1F16C
:100EF000004F40EBC25008BF20F0010040EA030061
:100F00007047490040EB000010F4000FA2F101020D
:100F1000EDD1B0FA80FCACF1080CB2EB0C0200FA97
:100F20000CF0AABF00EBC25052421843BCBFD040E5
:100F30001843704792F0000F81F4000106BF80F45F
:100F400000000132013BB5E74FEA41037FEA226C22
:100F500018BF7FEA236C21D092EA030F04D092F0ED
:100F6000000F08BF0846704790EA010F1CBF002021
:100F7000704712F07F4F04D1400028BF40F000407E
:100F8000704712F100723CBF00F50000704700F09E
:100F9000004343F0FE4040F4000070477FEA2262C5
:100FA00016BF08467FEA23630146420206BF5FEA96
:100FB000412390EA010F40F4800070474FF0000396
:100FC00004E000BF10F0004348BF40425FEA000C5D
:100FD00008BF704743F0964301464FF000001CE005
:100FE00050EA010208BF70474FF000030AE000BF5B
:100FF00050EA010208BF704711F0004302D5404299
:1010000061EB41015FEA010C02BF8446014600200A
:1010100043F0B64308BFA3F18053A3F50003BCFA25
:101020008CF2083AA3EBC25310DB01FA02FC6344D2
:1010300000FA02FCC2F12002BCF1004F20FA02F2D9
:1010400043EB020008BF20F00100704702F12002CC
:1010500001FA02FCC2F1200250EA4C0021FA02F22D
:1010600043EB020008BF20EADC7070474FF0FF0C32
:101070001CEAD0521EBF1CEAD15392EA0C0F93EA2D
:101080000C0F6FD01A4480EA010C400218BF5FEACF
:1010900041211ED04FF0006343EA501043EA511142
:1010A000A0FB01310CF00040B1F5000F3EBF49003C
:1010B00041EAD3715B0040EA010062F17F02FD2A40
:1010C0001DD8B3F1004F40EBC25008BF20F0010023
:1010D000704790F0000F0CF0004C08BF49024CEA3A
:1010E000502040EA51207F3AC2BFD2F1FF0340EACC
:1010F000C250704740F400004FF00003013A5DDC3D
:1011000012F1190FDCBF00F000407047C2F100027D
:10111000410021FA02F1C2F1200200FA02FC5FEA6A
:10112000310040F1000053EA4C0308BF20EADC70B4
:10113000704792F0000F00F0004C02BF400010F426
:10114000000F013AF9D040EA0C0093F0000F01F0D3
:10115000004C02BF490011F4000F013BF9D041EAF5
:101160000C018FE70CEAD15392EA0C0F18BF93EAF7
:101170000C0F0AD030F0004C18BF31F0004CD8D121
:1011800080EA010000F00040704790F0000F17BFA8
:1011900090F0004F084691F0000F91F0004F14D0EE
:1011A00092EA0C0F01D142020FD193EA0C0F03D146
:1011B0004B0218BF084608D180EA010000F0004049
:1011C00040F0FE4040F40000704740F0FE4040F424
:1011D000400070474FF0FF0C1CEAD0521EBF1CEAC3
:1011E000D15392EA0C0F93EA0C0F69D0A2EB0302E1
:1011F00080EA010C49024FEA402037D04FF080537B
:1012000043EA111143EA10130CF000408B4238BF3F
:101210005B0042F17D024FF4000C8B4224BF5B1A4D
:1012200040EA0C00B3EB510F24BFA3EB510340EA9B
:101230005C00B3EB910F24BFA3EB910340EA9C0049
:10124000B3EBD10F24BFA3EBD10340EADC001B01B9
:1012500018BF5FEA1C1CE0D1FD2A3FF650AF8B425D
:1012600040EBC25008BF20F0010070470CF0004C6A
:101270004CEA50207F32C2BFD2F1FF0340EAC25095
:10128000704740F400004FF00003013A37E792F056
:10129000000F00F0004C02BF400010F4000F013AB4
:1012A000F9D040EA0C0093F0000F01F0004C02BFAF
:1012B000490011F4000F013BF9D041EA0C0195E718
:1012C0000CEAD15392EA0C0F08D142027FF47DAFB1
:1012D00093EA0C0F7FF470AF084676E793EA0C0FA1
:1012E00004D14B023FF44CAF08466EE730F0004C9F
:1012F00018BF31F0004CCAD130F000427FF45CAF2F
:1013000031F000437FF43CAF5FE700BF4FF0FF3C9C
:1013100006E000BF4FF0010C02E000BF4FF0010CEF
:101320004DF804CD4FEA40024FEA41037FEA226CB8
:1013300018BF7FEA236C11D001B052EA530C18BFDA
:1013400090EA010F58BFB2EB030088BFC81738BF3F
:101350006FEAE17018BF40F0010070477FEA226C2D
:1013600002D15FEA402C05D17FEA236CE4D15FEA29
:10137000412CE1D05DF8040B704700BF844608465D
:101380006146FFE70FB5FFF7C9FF002848BF10F11E
:10139000000F0FBD4DF808EDFFF7F4FF0CBF012063
:1013A00000205DF808FB00BF4DF808EDFFF7EAFFED
:1013B00034BF012000205DF808FB00BF4DF808EDA8
:1013C000FFF7E0FF94BF012000205DF808FB00BF9D
:1013D0004DF808EDFFF7D2FF94BF012000205DF823
:1013E00008FB00BF4DF808EDFFF7C8FF34BF012030
:1013F00000205DF808FB00BF42000ED2B2F1FE4FA4
:101400000BD34FF09E03B3EB126209D44FEA0023D3
:1014100043F0004323FA02F070474FF0000070479A
:1014200012F1610F01D1420202D14FF0FF3070473B
:081430004FF00000704700BFFF
:10143800007A030A00000000000000000102030413
:041448000607080982
:0400000508000000EF
:00000001FF
