:020000040800F2
:1000000018080020BD0300081D0400081D04000896
:100010001D0400081D0400081D0400080000000065
:100020000000000000000000000000001D040008A7
:100030001D040008000000001D040008D104000891
:100040001D0400081D0400081D0400081D0400080C
:100050001D0400081D0400081D0400081D040008FC
:100060001D0400081D0400081D0400081D040008EC
:100070001D0400081D0400081D0400081D040008DC
:100080001D0400081D0400081D0400081D040008CC
:100090001D0400081D0400081D0400081D040008BC
:1000A0001D0400081D0400081D0400081D040008AC
:1000B0001D0400081D0400081D0400081D0400089C
:1000C0001D0400081D0400081D0400081D0400088C
:1000D0001D0400081D0400081D0400081D0400087C
:1000E0001D0400081D0400081D0400081D0400086C
:1000F0001D0400081D0400081D0400081D0400085C
:100100001D0400081D0400081D0400081D0400084B
:100110001D0400081D0400081D0400081D0400083B
:100120001D0400081D0400081D0400081D0400082B
:100130001D0400081D0400081D0400081D0400081B
:100140001D0400081D0400081D0400081D0400080B
:100150001D0400081D0400081D0400081D040008FB
:100160001D0400081D0400081D0400081D040008EB
:100170001D0400081D0400081D0400081D040008DB
:100180001D0400081D04000880B582B000AF00F017
:1001900003F900233B710223FB7100237B710120D3
:1001A000012100F059FB3B46184600F05BFC49F684
:1001B000FF733B6000233B710023FB7103237B71C2
:1001C0003B460020C4F20200194600F0BDFB4FF68A
:1001D000FF733B603B464FF48060C4F20200194657
:1001E00000F0B2FB0420012100F036FB3B4618462C
:1001F00000F038FC0420012100F02EFB3B4618469D
:1002000000F030FCC0233B600023BB7102233B7134
:1002100003237B710123FB713B464FF40060C4F262
:100220000200194600F090FB0820012100F014FBA9
:100230003B46184600F016FC40F6FF733B60012376
:100240003B710023BB710023FB7103237B713B4691
:100250004FF44060C4F20200194600F075FB4FF401
:1002600070433B6002233B713B464FF44060C4F255
:100270000200194600F068FB4FF6FF733B603B46F7
:100280004FF48050C4F20200194600F05DFB0123D8
:100290003B6000233B710223FB7102237B713B46D1
:1002A0000020C4F20200194600F04EFB4FF4C05388
:1002B0003B6000233B710023FB7102237B713B46B3
:1002C0000020C4F20200194600F03EFB10233B6000
:1002D0003B464FF44060C4F20200194600F034FB84
:1002E0004FF44060C4F202001021002200F00AFC2A
:1002F00001233B6001233B710023BB710023FB7191
:1003000002237B713B464FF40060C4F202001946A1
:1003100000F01AFB4FF40060C4F20200012100F06B
:10032000D5FB20233B6000233B710023FB7100239E
:100330007B713B464FF44060C4F20200194600F066
:1003400003FB4FF44060C4F202000C21022200F0D3
:10035000F1FB4FF44060C4F202000D21022200F0D4
:10036000E9FB4FF44060C4F202000E21022200F0CB
:10037000E1FB4FF44060C4F202000F21022200F0C2
:10038000D9FB4FF40060C4F202000621022200F003
:10039000D1FB0837BD4680BD80B500AF9F2001214D
:1003A00000F05AFA4FF08050012100F07DFA4FF42E
:1003B0008040012100F0A0FA80BD00BF80B582B06E
:1003C00000AF42F28C33C0F600037B6040F20003C2
:1003D000C2F200033B6007E03B681A1D3A607A688E
:1003E000111D796012681A603A6840F21403C2F273
:1003F00000039A42F0D3074807494FF000028842B1
:10040000B8BF40F8042BFADB00F0BAF80837BD4655
:1004100080BD0000140000201800002080B400AF50
:10042000FEE700BF80B483B000AF03463960FB71C4
:1004300097F90730002B0EDA4FF46D43CEF200032C
:10044000FA7902F00F02111F3A68D2B21201D2B249
:100450000B441A760CE04FF46143CEF2000397F997
:1004600007103A68D2B21201D2B20B4483F80023CB
:100470000C37BD465DF8047B704700BF80B582B085
:1004800000AF78607B68B3F1807F01D301231AE06D
:100490004EF21003CEF200037A6822F07F42013A56
:1004A0005A604FF0FF300F21FFF7BCFF4EF21003F0
:1004B000CEF2000300229A604EF21003CEF2000347
:1004C00007221A60002318460837BD4680BD00BFCA
:1004D00080B500AF40F21403C2F200031B68184657
:1004E00001F08AF902460B461046194608A3D3E9E3
:1004F000002301F023F802460B461046194601F08E
:1005000001FC024640F21403C2F200031A6080BDEF
:100510007B14AE47E17A743F80B582B000AF78605B
:1005200000F096FB40F20003C2F200031B6818467D
:1005300001F0EEFC03461846796801F041FD0346E0
:10054000184601F003FF03461846FFF797FF0837E8
:10055000BD4680BD80B483B000AF00237B6002E065
:100560007B6801337B607A684EF2FF03C0F2F5537B
:100570009A42F5D90C37BD465DF8047B704700BF41
:1005800080B584B000AF0023FB600023BB60012373
:100590007B6000F015FBFFF7FFFEFFF7F5FD4DF266
:1005A0000A70C3F6A330FFF7B7FF00F0C1F84FF4AD
:1005B0004060C4F20200022100F088FA4FF440606B
:1005C000C4F20200012100F08FFA00F0E9F840F2D5
:1005D0001403C2F200031B6818464FF07E5101F06D
:1005E000A1FE0346002B42D040F21403C2F20003E6
:1005F0004FF000021A60FB68082B04DD0123BB608A
:1006000000237B6006E0FB68002B03D10023BB6066
:1006100001237B607B68012B02D1FB680133FB6007
:10062000BB68012B02D1FB68013BFB60FA6844F612
:100630001603C0F2010303FB02F3184601F0CAF8E7
:1006400002460B461046194637A3D3E9002301F0B2
:1006500027F902460B461046194601F033FB0346C4
:100660004FF48060C4F20000194600F0DFFE002065
:10067000C4F20200012100F00FFA0346002B50D013
:100680004FF44060C4F202004FF4805100F01EFAB3
:10069000FFF760FF4FF44060C4F202004FF4805156
:1006A00000F022FAFFF756FF4FF44060C4F2020058
:1006B0004FF4005100F00AFAFFF74CFF4FF440608E
:1006C000C4F202004FF4005100F00EFAFFF742FFAF
:1006D0004FF44060C4F202004FF4804100F0F6F99C
:1006E000FFF738FF4FF44060C4F202004FF480413E
:1006F00000F0FAF9FFF72EFF4FF44060C4F2020059
:100700004FF4004100F0E2F9FFF724FF4FF440609E
:10071000C4F202004FF4004100F0E6F9FFF71AFFBF
:1007200055E754E7AFF300807B14AE47E17A843F8E
:1007300080B584B000AF0220012100F0B5F804209C
:10074000012100F0B1F80023BB800023FB8042F2BE
:10075000CF03BB600023BB810023BB733B1D4FF461
:100760008060C4F20000194600F0DAFB3B1D4FF434
:100770000060C4F20000194600F0D2FB4FF4806024
:10078000C4F20000012100F041FC4FF40060C4F20B
:100790000000012100F03AFC1037BD4680BD00BFCB
:1007A00080B586B000AF7023BB800123FB8002239D
:1007B0003B820023FB603B1D4FF40060C4F200004D
:1007C000194600F043FC4FF40060C4F20000082119
:1007D00000F03AFE3B1D4FF40060C4F200001946E1
:1007E00000F0AEFC4FF40060C4F20000082100F0FD
:1007F00047FE3B1D4FF40060C4F20000194600F0B4
:1008000027FD4FF40060C4F20000082100F056FEFE
:100810003B1D4FF40060C4F20000194600F09EFD3D
:100820004FF40060C4F20000082100F063FE602372
:10083000BB803B1D4FF48060C4F20000194600F0FD
:1008400005FC4FF48060C4F20000082100F0FCFDBC
:100850001837BD4680BD00BF80B483B000AF78605C
:100860000B46FB70FB78002B0CD04FF46053C4F2A6
:1008700002034FF46052C4F20202116B7A680A4319
:100880001A630CE04FF46053C4F202034FF4605259
:10089000C4F20202116B7A68D2430A401A630C3721
:1008A000BD465DF8047B704780B483B000AF7860CC
:1008B0000B46FB70FB78002B0CD04FF46053C4F256
:1008C00002034FF46052C4F20202116C7A680A43C8
:1008D0001A640CE04FF46053C4F202034FF4605208
:1008E000C4F20202116C7A68D2430A401A640C37CF
:1008F000BD465DF8047B704780B483B000AF78607C
:100900000B46FB70FB78002B0CD04FF46053C4F205
:1009100002034FF46052C4F20202516C7A680A4337
:100920005A640CE04FF46053C4F202034FF4605277
:10093000C4F20202516C7A68D2430A405A640C37FE
:10094000BD465DF8047B704780B487B000AF786027
:10095000396000237B6100233B610023FB6000239F
:100960007B6176E07B69012202FA03F33B613B681D
:100970001A683B691340FB60FA683B699A4265D18B
:100980007B681A687B695B00032101FA03F3DB4390
:100990001A407B681A607B681A683B681B791946A5
:1009A0007B695B0001FA03F31A437B681A603B68BA
:1009B0001B79012B03D03B681B79022B2ED17B685E
:1009C0009A687B695B00032101FA03F3DB431A4059
:1009D0007B689A607B689A683B685B7919467B699B
:1009E0005B0001FA03F31A437B689A607B685A68DC
:1009F0007B699BB2012101FA03F3DB431A407B6858
:100A00005A607B685A683B689B7919467B699BB240
:100A100001FA03F39BB21A437B685A607B68DA6879
:100A20007B699BB25B00032101FA03F3DB431A40AD
:100A30007B68DA607B68DA683B68DB7919467B693A
:100A40005B0001FA03F31A437B68DA607B690133C8
:100A50007B617B690F2B85D91C37BD465DF8047B14
:100A6000704700BF80B483B000AF78607B684FF6FA
:100A7000FF721A607B6800221A717B6800225A712B
:100A80007B6800229A717B680022DA710C37BD46C0
:100A90005DF8047B704700BF80B485B000AF78601C
:100AA0000B467B800023FB737B681A697B881340AD
:100AB000002B02D00123FB7301E00023FB73FB7BBF
:100AC00018461437BD465DF8047B704780B483B088
:100AD00000AF78600B467B807B687A881A830C377E
:100AE000BD465DF8047B704780B483B000AF78608A
:100AF0000B467B807B687A885A830C37BD465DF84D
:100B0000047B704780B483B000AF786013460A4618
:100B10007A807B707B78002B03D07B687A881A837D
:100B200002E07B687A885A830C37BD465DF8047B07
:100B3000704700BF80B485B000AF786013460A46A6
:100B40007A807B700023FB600023BB607A787B880F
:100B500003F007039B0002FA03F3FB607B88DB08CA
:100B60009BB21A467B88DB089BB219467B6808312A
:100B700053F821107B8803F007039B000F2000FA35
:100B800003F3DB4319407B68083243F822107B886B
:100B9000DB089BB21A467B68083253F82220FB68B8
:100BA0001343BB607B88DB089BB21A467B68083224
:100BB000B96843F822101437BD465DF8047B7047CE
:100BC00080B500AF4FF46053C4F202034FF460529B
:100BD000C4F20202126842F001021A604FF460533C
:100BE000C4F2020300229A604FF46053C4F202037D
:100BF0004FF46052C4F20202126822F0847222F4AE
:100C000080321A604FF46053C4F2020343F21002C0
:100C1000C2F200425A604FF46053C4F202034FF430
:100C20006052C4F20202126822F480221A604FF469
:100C30006053C4F202030022DA6000F0B3F84FF40C
:100C40006D43CEF200034FF000629A6080BD00BF9A
:100C500080B487B000AF00233B6100237B61022397
:100C6000FB600023BB6002237B604FF46053C4F23F
:100C700002039B6803F00C033B613B69042B0DD01E
:100C8000082B15D0002B63D140F20003C2F2000301
:100C90004FF41052C0F2F4021A6063E040F2000315
:100CA000C2F200034FF49052C0F27A021A6059E087
:100CB0004FF46053C4F202035B6803F480039B0D9E
:100CC000BB604FF46053C4F202035B6803F03F0360
:100CD0007B60BB68002B13D04FF49053C0F27A03B3
:100CE0007A68B3FBF2F24FF46053C4F2020359681E
:100CF00047F6C0730B409B0903FB02F37B6112E0D4
:100D00004FF41053C0F2F4037A68B3FBF2F24FF4DD
:100D10006053C4F20203596847F6C0730B409B0945
:100D200003FB02F37B614FF46053C4F202035B6880
:100D300003F440331B0C01335B00FB607A69FB68F2
:100D4000B2FBF3F240F20003C2F200031A6009E0C2
:100D500040F20003C2F200034FF41052C0F2F4025A
:100D60001A6000BF4FF46053C4F202039B6803F0A3
:100D7000F0031A0940F20403C2F200039B5CDBB2E9
:100D80003B6140F20003C2F200031A683B69DA409B
:100D900040F20003C2F200031A601C37BD465DF842
:100DA000047B704780B483B000AF00237B600023D6
:100DB0003B604FF46053C4F202034FF46052C4F23C
:100DC0000202126842F480321A604FF46053C4F297
:100DD00002031B6803F400333B607B6801337B60D4
:100DE0003B68002B03D17B68B3F5A06FEDD14FF4C6
:100DF0006053C4F202031B6803F40033002B02D0DB
:100E000001233B6001E000233B603B68012B40F085
:100E100082804FF46053C4F202034FF46052C4F274
:100E20000202126C42F080521A644FF4E043C4F2A2
:100E300000034FF4E042C4F20002126842F4804220
:100E40001A604FF46053C4F202034FF46052C4F2CC
:100E5000020292689A604FF46053C4F202034FF4A6
:100E60006052C4F20202926842F400429A604FF467
:100E70006053C4F202034FF46052C4F2020292685B
:100E800042F4A0529A604FF46053C4F2020345F258
:100E90000842C0F240725A604FF46053C4F2020339
:100EA0004FF46052C4F20202126842F080721A607B
:100EB00000BF4FF46053C4F202031B6803F00073D9
:100EC000002BF6D04FF47053C4F2020340F20562D7
:100ED0001A604FF46053C4F202034FF46052C4F23C
:100EE0000202926822F003029A604FF46053C4F247
:100EF00002034FF46052C4F20202926842F002020E
:100F00009A6000BF4FF46053C4F202039B6803F081
:100F10000C03082BF6D10C37BD465DF8047B7047F7
:100F200080B485B000AF786039600023FB817B68B6
:100F30001B88FB817A680023C4F201039A421FD008
:100F40007A684FF48063C4F201039A4218D07B6838
:100F5000B3F1804F14D07A684FF48063C4F2000379
:100F60009A420DD07A684FF40063C4F200039A42AB
:100F700006D07A684FF44063C4F200039A4208D165
:100F8000FB8923F07003FB813B685A88FB8913437C
:100F9000FB817A684FF48053C4F200039A420FD069
:100FA0007A684FF4A053C4F200039A4208D0FB8938
:100FB00023F44073FB813B681A89FB891343FB814F
:100FC0007B68FA891A803B685A687B68DA623B68FA
:100FD0001A887B681A857A680023C4F201039A4252
:100FE00006D07A684FF48063C4F201039A4204D1B8
:100FF0003B689B7A1A467B681A867B6801229A8234
:101000001437BD465DF8047B704700BF80B483B0E1
:1010100000AF78600B46FB70FB78002B08D07B6834
:101020001B889BB243F001039AB27B681A8007E0E9
:101030007B681B889BB223F001039AB27B681A80FD
:101040000C37BD465DF8047B704700BF80B485B0A7
:1010500000AF7860396000237B810023FB8100238F
:10106000BB817B681B8C9BB223F001039AB27B6827
:101070001A847B681B8CFB817B689B88BB817B68A7
:101080001B8B7B817B8923F070037B817B8923F021
:1010900003037B813B681A887B8913437B81FB892F
:1010A00023F00203FB813B689A89FB891343FB8190
:1010B0003B685A88FB891343FB817A680023C4F29A
:1010C00001039A4206D07A684FF48063C4F20103A8
:1010D0009A4223D1FB8923F00803FB813B68DA891C
:1010E000FB891343FB81FB8923F00403FB813B68ED
:1010F0009A88FB891343FB81BB8923F48073BB81EE
:10110000BB8923F40073BB813B681A8ABB891343F4
:10111000BB813B685A8ABB891343BB817B68BA8910
:101120009A807B687A891A833B689A687B685A63DD
:101130007B68FA891A841437BD465DF8047B7047D2
:1011400080B485B000AF7860396000237B810023D4
:10115000FB810023BB817B681B8C9BB223F01003B7
:101160009AB27B681A847B681B8CFB817B689B88A6
:10117000BB817B681B8B7B817B8923F4E0437B8174
:101180007B8923F440737B813B681B881B029AB2E6
:101190007B8913437B81FB8923F02003FB813B6820
:1011A0009B891B019AB2FB891343FB813B685B88D7
:1011B0001B019AB2FB891343FB817A680023C4F2B6
:1011C00001039A4206D07A684FF48063C4F20103A7
:1011D0009A422BD1FB8923F08003FB813B68DB899A
:1011E0001B019AB2FB891343FB81FB8923F0400367
:1011F000FB813B689B881B019AB2FB891343FB81EF
:10120000BB8923F48063BB81BB8923F40063BB816A
:101210003B681B8A9B009AB2BB891343BB813B6826
:101220005B8A9B009AB2BB891343BB817B68BA89F6
:101230009A807B687A891A833B689A687B689A638C
:101240007B68FA891A841437BD465DF8047B7047C1
:1012500080B485B000AF7860396000237B810023C3
:10126000FB810023BB817B681B8C9BB223F48073C2
:101270009AB27B681A847B681B8CFB817B689B8895
:10128000BB817B689B8B7B817B8923F070037B8197
:101290007B8923F003037B813B681A887B89134396
:1012A0007B81FB8923F40073FB813B689B891B02D4
:1012B0009AB2FB891343FB813B685B881B029AB29D
:1012C000FB891343FB817A680023C4F201039A422D
:1012D00006D07A684FF48063C4F201039A422BD19E
:1012E000FB8923F40063FB813B68DB891B029AB214
:1012F000FB891343FB81FB8923F48063FB813B68FB
:101300009B881B029AB2FB891343FB81BB8923F4A0
:101310008053BB81BB8923F40053BB813B681B8A8C
:101320001B019AB2BB891343BB813B685B8A1B01DB
:101330009AB2BB891343BB817B68BA899A807B6868
:101340007A899A833B689A687B68DA637B68FA8952
:101350001A841437BD465DF8047B704780B485B0AD
:1013600000AF786039600023BB8100237B810023BC
:10137000FB817B681B8C9BB223F480539AB27B6801
:101380001A847B681B8C7B817B689B88FB817B68D4
:101390009B8BBB81BB8923F4E043BB81BB8923F4D6
:1013A0004073BB813B681B881B029AB2BB89134305
:1013B000BB817B8923F400537B813B689B891B03A2
:1013C0009AB27B8913437B813B685B881B039AB28B
:1013D0007B8913437B817A680023C4F201039A421C
:1013E00006D07A684FF48063C4F201039A420AD1AE
:1013F000FB8923F48043FB813B681B8A9B019AB2E3
:10140000FB891343FB817B68FA899A807B68BA89E0
:101410009A833B689A687B681A647B687A891A8425
:101420001437BD465DF8047B704700BF80B483B0BD
:1014300000AF786039607B683A685A630C37BD4604
:101440005DF8047B704700BF80B485B000AF786062
:101450000B467B800023FB817B681B8BFB81FB8918
:1014600023F00803FB81FA897B881343FB817B68A7
:10147000FA891A831437BD465DF8047B704700BFB4
:1014800080B485B000AF78600B467B800023FB8181
:101490007B681B8BFB81FB8923F40063FB817B88CA
:1014A0001B029AB2FB891343FB817B68FA891A837A
:1014B0001437BD465DF8047B704700BF80B485B02B
:1014C00000AF78600B467B800023FB817B689B8BA1
:1014D000FB81FB8923F00803FB81FA897B88134396
:1014E000FB817B68FA899A831437BD465DF8047BDB
:1014F000704700BF80B485B000AF78600B467B803A
:101500000023FB817B689B8BFB81FB8923F40063B9
:10151000FB817B881B029AB2FB891343FB817B68AA
:10152000FA899A831437BD465DF8047B704700BF83
:1015300081F0004102E000BF83F0004330B54FEA84
:1015400041044FEA430594EA050F08BF90EA020FF1
:101550001FBF54EA000C55EA020C7FEA645C7FEA84
:10156000655C00F0E2804FEA5454D4EB5555B8BFA7
:101570006D420CDD2C4480EA020281EA030382EA18
:10158000000083EA010180EA020281EA0303362DAA
:1015900088BF30BD11F0004F4FEA01314FF4801C7D
:1015A0004CEA113102D0404261EB410113F0004F8F
:1015B0004FEA03334CEA133302D0524263EB430346
:1015C00094EA050F00F0A780A4F10104D5F1200EE4
:1015D0000DDB02FA0EFC22FA05F2801841F100013F
:1015E00003FA0EF2801843FA05F359410EE0A5F113
:1015F00020050EF1200E012A03FA0EFC28BF4CF044
:10160000020C43FA05F3C01851EBE37101F00045F9
:1016100007D54FF0000EDCF1000C7EEB00006EEB06
:101620000101B1F5801F1BD3B1F5001F0CD3490890
:101630005FEA30004FEA3C0C04F101044FEA4452E7
:1016400012F5800F80F09A80BCF1004F08BF5FEA6E
:10165000500C50F1000041EB045141EA050130BD4E
:101660005FEA4C0C404141EB010111F4801FA4F1F1
:101670000104E9D191F0000F04BF01460020B1FA46
:1016800081F308BF2033A3F10B03B3F120020CDA7E
:101690000C3208DD02F1140CC2F10C0201FA0CF05C
:1016A00021FA02F10CE002F11402D8BFC2F1200CC1
:1016B00001FA02F120FA0CFCDCBF41EA0C01904077
:1016C000E41AA2BF01EB0451294330BD6FEA0404C0
:1016D0001F3C1CDA0C340EDC04F11404C4F12002AB
:1016E00020FA04F001FA02F340EA030021FA04F3BD
:1016F00045EA030130BDC4F10C04C4F1200220FA14
:1017000002F001FA04F340EA0300294630BD21FA51
:1017100004F0294630BD94F0000F83F4801306BF17
:1017200081F480110134013D4EE77FEA645C18BF0B
:101730007FEA655C29D094EA050F08BF90EA020FA2
:1017400005D054EA000C04BF1946104630BD91EA9A
:10175000030F1EBF0021002030BD5FEA545C05D19D
:101760004000494128BF41F0004130BD14F58004DC
:101770003CBF01F5801130BD01F0004545F0FE4150
:1017800041F470014FF0000030BD7FEA645C1ABF85
:10179000194610467FEA655C1CBF0B46024650EABC
:1017A000013406BF52EA033591EA030F41F40021E8
:1017B00030BD00BF90F0000F04BF0021704730B56E
:1017C0004FF4806404F132044FF000054FF0000143
:1017D00050E700BF90F0000F04BF0021704730B504
:1017E0004FF4806404F1320410F0004548BF4042D9
:1017F0004FF000013EE700BF42004FEAE2014FEA2E
:1018000031014FEA02701FBF12F07F4393F07F4F08
:1018100081F06051704792F0000F14BF93F07F4F3A
:10182000704730B54FF4607401F0004521F000417D
:1018300020E700BF50EA010208BF704730B54FF003
:1018400000050AE050EA010208BF704730B511F008
:10185000004502D5404261EB41014FF4806404F140
:1018600032045FEA915C3FF4DCAE4FF003025FEAC2
:10187000DC0C18BF03325FEADC0C18BF033202EB4A
:10188000DC02C2F1200300FA03FC20FA02F001FAA4
:1018900003FE40EA0E0021FA02F11444C1E600BF43
:1018A00070B54FF0FF0C4CF4E06C1CEA11541DBFF6
:1018B0001CEA135594EA0C0F95EA0C0F00F0DEF8C1
:1018C0002C4481EA030621EA4C5123EA4C5350EAA6
:1018D000013518BF52EA033541F4801143F48013F7
:1018E00038D0A0FB02CE4FF00005E1FB02E506F088
:1018F0000042E0FB03E54FF00006E1FB03569CF0DD
:10190000000F18BF4EF0010EA4F1FF04B6F5007FE2
:1019100064F5407404D25FEA4E0E6D4146EB060654
:1019200042EAC62141EA55514FEAC52040EA5E50DD
:101930004FEACE2EB4F1FD0C88BFBCF5E06F1ED887
:10194000BEF1004F08BF5FEA500E50F1000041EBBE
:10195000045170BD06F0004646EA010140EA02006B
:1019600081EA0301B4EB5C04C2BFD4EB0C0541EA8D
:10197000045170BD41F480114FF0000E013C00F3A2
:10198000AB8014F1360FDEBF002001F0004170BDC6
:10199000C4F10004203C35DA0C341BDC04F11404DF
:1019A000C4F1200500FA05F320FA04F001FA05F26B
:1019B00040EA020001F0004221F0004110EBD37038
:1019C00021FA04F642EB06015EEA430E08BF20EA64
:1019D000D37070BDC4F10C04C4F1200500FA04F307
:1019E00020FA05F001FA04F240EA020001F0004199
:1019F00010EBD37041F100015EEA430E08BF20EA0C
:101A0000D37070BDC4F1200500FA05F24EEA020E53
:101A100020FA04F301FA05F243EA020321FA04F082
:101A200001F0004121FA04F220EA020000EBD37039
:101A30005EEA430E08BF20EAD37070BD94F0000F39
:101A40000FD101F00046400041EB010111F4801F6D
:101A500008BF013CF7D041EA060195F0000F18BF1E
:101A6000704703F00046520043EB030313F4801F5A
:101A700008BF013DF7D043EA0603704794EA0C0F14
:101A80000CEA135518BF95EA0C0F0CD050EA41062A
:101A900018BF52EA4306D1D181EA030101F00041A7
:101AA0004FF0000070BD50EA410606BF10461946CF
:101AB00052EA430619D094EA0C0F02D150EA0136DB
:101AC00013D195EA0C0F05D152EA03361CBF10461C
:101AD00019460AD181EA030101F0004141F0FE41BB
:101AE00041F470014FF0000070BD41F0FE4141F43F
:101AF000780170BD70B54FF0FF0C4CF4E06C1CEA3F
:101B000011541DBF1CEA135594EA0C0F95EA0C0FF3
:101B100000F0A7F8A4EB050481EA030E52EA0335AE
:101B20004FEA013100F088804FEA03334FF08055CF
:101B300045EA131343EA12634FEA022245EA1115FC
:101B400045EA10654FEA00260EF000419D4208BFAD
:101B5000964244F1FD0404F5407402D25B084FEA5A
:101B60003202B61A65EB03055B084FEA32024FF406
:101B700080104FF4002CB6EB020E75EB030E22BF63
:101B8000B61A754640EA0C005B084FEA3202B6EB23
:101B9000020E75EB030E22BFB61A754640EA5C00D2
:101BA0005B084FEA3202B6EB020E75EB030E22BF62
:101BB000B61A754640EA9C005B084FEA3202B6EB63
:101BC000020E75EB030E22BFB61A754640EADC0022
:101BD00055EA060E18D04FEA051545EA16754FEA84
:101BE00006164FEAC30343EA52734FEAC2025FEAA2
:101BF0001C1CC0D111F4801F0BD141EA00014FF031
:101C000000004FF0004CB6E711F4801F04BF014301
:101C10000020B4F1FD0C88BFBCF5E06F3FF6AFAE1D
:101C2000B5EB030C04BFB6EB020C5FEA500C50F1AD
:101C3000000041EB045170BD0EF0004E4EEA113130
:101C400014EB5C04C2BFD4EB0C0541EA045170BD37
:101C500041F480114FF0000E013C90E645EA060E7B
:101C60008DE60CEA135594EA0C0F08BF95EA0C0FA9
:101C70003FF43BAF94EA0C0F0AD150EA01347FF4F1
:101C800034AF95EA0C0F7FF425AF104619462CE7C8
:101C900095EA0C0F06D152EA03353FF4FDAE10462B
:101CA000194622E750EA410618BF52EA43067FF47C
:101CB000C5AE50EA41047FF40DAF52EA43057FF40C
:101CC000EBAE12E74A0011D212F5001211D20DD577
:101CD0006FF47873B3EB62520ED44FEAC12343F032
:101CE000004343EA505323FA02F070474FF00000DC
:101CF000704750EA013002D14FF0FF3070474FF08B
:101D0000000070474FEA4102B2F1E04324BFB3F54F
:101D1000001CDCF1FE5C0DD901F0004C4FEAC00262
:101D20004CEA5070B2F1004F40EB830008BF20F046
:101D30000100704711F0804F21D113F13872BCBF00
:101D400001F00040704741F480114FEA5252C2F155
:101D50001802C2F1200C10FA0CF320FA02F018BF9E
:101D600040F001004FEAC1234FEAD32303FA0CFCF1
:101D700040EA0C0023FA02F34FEA4303CCE77FEA80
:101D8000625307D150EA01331EBF4FF0FE4040F4CA
:101D90004000704701F0004040F0FE4040F4000079
:101DA000704700BF80F0004002E000BF81F00041BA
:101DB00042001FBF5FEA410392EA030F7FEA226CF1
:101DC0007FEA236C6AD04FEA1262D2EB1363C1BF81
:101DD000D218414048404140B8BF5B42192B88BFF0
:101DE000704710F0004F40F4000020F07F4018BF13
:101DF000404211F0004F41F4000121F07F4118BF33
:101E0000494292EA030F3FD0A2F1010241FA03FCDA
:101E100010EB0C00C3F1200301FA03F100F00043C2
:101E200002D5494260EB4000B0F5000F13D3B0F18A
:101E3000807F06D340084FEA310102F10102FE2AF9
:101E400051D2B1F1004F40EBC25008BF20F0010069
:101E500040EA03007047490040EB000010F4000F17
:101E6000A2F10102EDD1B0FA80FCACF1080CB2EBAA
:101E70000C0200FA0CF0AABF00EBC2505242184309
:101E8000BCBFD0401843704792F0000F81F40001AE
:101E900006BF80F400000132013BB5E74FEA410381
:101EA0007FEA226C18BF7FEA236C21D092EA030FED
:101EB00004D092F0000F08BF0846704790EA010F67
:101EC0001CBF0020704712F07F4F04D1400028BF94
:101ED00040F00040704712F100723CBF00F5000076
:101EE000704700F0004343F0FE4040F400007047AC
:101EF0007FEA226216BF08467FEA23630146420258
:101F000006BF5FEA412390EA010F40F4800070476A
:101F10004FF0000304E000BF10F0004348BF404210
:101F20005FEA000C08BF704743F0964301464FF04C
:101F300000001CE050EA010208BF70474FF00003A8
:101F40000AE000BF50EA010208BF704711F00043E9
:101F500002D5404261EB41015FEA010C02BF8446B9
:101F60000146002043F0B64308BFA3F18053A3F518
:101F70000003BCFA8CF2083AA3EBC25310DB01FA5F
:101F800002FC634400FA02FCC2F12002BCF1004FE3
:101F900020FA02F243EB020008BF20F00100704774
:101FA00002F1200201FA02FCC2F1200250EA4C00C8
:101FB00021FA02F243EB020008BF20EADC7070470E
:101FC0004FF0FF0C1CEAD0521EBF1CEAD15392EA1C
:101FD0000C0F93EA0C0F6FD01A4480EA010C4002F8
:101FE00018BF5FEA41211ED04FF0006343EA501052
:101FF00043EA5111A0FB01310CF00040B1F5000F94
:102000003EBF490041EAD3715B0040EA010062F142
:102010007F02FD2A1DD8B3F1004F40EBC25008BF2C
:1020200020F00100704790F0000F0CF0004C08BF4A
:1020300049024CEA502040EA51207F3AC2BFD2F117
:10204000FF0340EAC250704740F400004FF0000325
:10205000013A5DDC12F1190FDCBF00F0004070475F
:10206000C2F10002410021FA02F1C2F1200200FA9D
:1020700002FC5FEA310040F1000053EA4C0308BF64
:1020800020EADC70704792F0000F00F0004C02BFB5
:10209000400010F4000F013AF9D040EA0C0093F030
:1020A000000F01F0004C02BF490011F4000F013B8A
:1020B000F9D041EA0C018FE70CEAD15392EA0C0FF8
:1020C00018BF93EA0C0F0AD030F0004C18BF31F063
:1020D000004CD8D180EA010000F00040704790F039
:1020E000000F17BF90F0004F084691F0000F91F0DD
:1020F000004F14D092EA0C0F01D142020FD193EAA3
:102100000C0F03D14B0218BF084608D180EA01002A
:1021100000F0004040F0FE4040F40000704740F006
:10212000FE4040F4400070474FF0FF0C1CEAD052D4
:102130001EBF1CEAD15392EA0C0F93EA0C0F69D030
:10214000A2EB030280EA010C49024FEA402037D09B
:102150004FF0805343EA111143EA10130CF0004092
:102160008B4238BF5B0042F17D024FF4000C8B4282
:1021700024BF5B1A40EA0C00B3EB510F24BFA3EB62
:10218000510340EA5C00B3EB910F24BFA3EB910332
:1021900040EA9C00B3EBD10F24BFA3EBD10340EA8C
:1021A000DC001B0118BF5FEA1C1CE0D1FD2A3FF6D2
:1021B00050AF8B4240EBC25008BF20F00100704787
:1021C0000CF0004C4CEA50207F32C2BFD2F1FF032A
:1021D00040EAC250704740F400004FF00003013A5B
:1021E00037E792F0000F00F0004C02BF400010F4FF
:1021F000000F013AF9D040EA0C0093F0000F01F013
:10220000004C02BF490011F4000F013BF9D041EA34
:102210000C0195E70CEAD15392EA0C0F08D1420267
:102220007FF47DAF93EA0C0F7FF470AF084676E73A
:1022300093EA0C0F04D14B023FF44CAF08466EE713
:1022400030F0004C18BF31F0004CCAD130F00042E1
:102250007FF45CAF31F000437FF43CAF5FE700BF39
:102260004FF0FF3C06E000BF4FF0010C02E000BF62
:102270004FF0010C4DF804CD4FEA40024FEA410304
:102280007FEA226C18BF7FEA236C11D001B052EABA
:10229000530C18BF90EA010F58BFB2EB030088BF80
:1022A000C81738BF6FEAE17018BF40F001007047EF
:1022B0007FEA226C02D15FEA402C05D17FEA236CD1
:1022C000E4D15FEA412CE1D05DF8040B704700BF18
:1022D000844608466146FFE70FB5FFF7C9FF0028AF
:1022E00048BF10F1000F0FBD4DF808EDFFF7F4FFE8
:1022F0000CBF012000205DF808FB00BF4DF808ED81
:10230000FFF7EAFF34BF012000205DF808FB00BFA3
:102310004DF808EDFFF7E0FF94BF012000205DF8C5
:1023200008FB00BF4DF808EDFFF7D2FF94BF012076
:1023300000205DF808FB00BF4DF808EDFFF7C8FF6F
:1023400034BF012000205DF808FB00BF42000ED220
:10235000B2F1FE4F0BD34FF09E03B3EB126209D4E0
:102360004FEA002343F0004323FA02F070474FF096
:102370000000704712F1610F01D1420202D14FF00B
:0C238000FF3070474FF00000704700BFB6
:10238C00007A030A000000000000000001020304B0
:04239C00060708091F
:0400000508000000EF
:00000001FF
