:020000040800F2
:100000000008002089010008E9010008E901000852
:10001000E9010008E9010008E9010008000000000A
:10002000000000000000000000000000E9010008DE
:10003000E901000800000000E9010008E9010008EA
:10004000E9010008E9010008E9010008E9010008E8
:10005000E9010008E9010008E9010008E9010008D8
:10006000E9010008E9010008E9010008E9010008C8
:10007000E9010008E9010008E9010008E9010008B8
:10008000E9010008E9010008E9010008E9010008A8
:10009000E9010008E9010008E9010008E901000898
:1000A000E9010008E9010008E9010008E901000888
:1000B000E9010008E9010008E9010008E901000878
:1000C000E9010008E9010008E9010008E901000868
:1000D000E9010008E9010008E9010008E901000858
:1000E000E9010008E9010008E9010008E901000848
:1000F000E9010008E9010008E9010008E901000838
:10010000E9010008E9010008E9010008E901000827
:10011000E9010008E9010008E9010008E901000817
:10012000E9010008E9010008E9010008E901000807
:10013000E9010008E9010008E9010008E9010008F7
:10014000E9010008E9010008E9010008E9010008E7
:10015000E9010008E9010008E9010008E9010008D7
:10016000E9010008E9010008E9010008E9010008C7
:10017000E9010008E9010008E9010008E9010008B7
:10018000E9010008E901000880B582B000AF40F243
:100190008C63C0F600037B6040F20003C2F20003F0
:1001A0003B6007E03B681A1D3A607A68111D796070
:1001B00012681A603A6840F20003C2F200039A42E1
:1001C000F0D3074807494FF000028842B8BF40F813
:1001D000042BFADB00F0DCF80837BD4680BD0000D8
:1001E000000000200000002080B400AFFEE700BF48
:1001F00080B582B000AF00233B710223FB71002366
:100200007B710120012100F023F93B46184600F0E4
:10021000D5F949F6FF733B6000233B710023FB7166
:1002200003237B713B460020C4F20200194600F014
:1002300037F94FF6FF733B603B464FF48060C4F2E2
:100240000200194600F02CF943F6FF733B603B4671
:100250004FF40060C4F20200194600F021F90820B2
:10026000012100F0F5F83B46184600F0A7F94FF6DB
:10027000FF733B6001233B710023BB710023FB71C3
:1002800003237B713B464FF44060C4F202001946E1
:1002900000F006F94FF6FF733B603B464FF4805089
:1002A000C4F20200194600F0FBF801233B60002372
:1002B0003B710223FB7102237B713B460020C4F299
:1002C0000200194600F0ECF84FF4C0533B600023E5
:1002D0003B710023FB7102237B713B460020C4F27B
:1002E0000200194600F0DCF810233B603B464FF457
:1002F0004060C4F20200194600F0D2F84FF44060AA
:10030000C4F202001021002200F0A8F901233B6092
:1003100001233B710023BB710023FB7102237B711E
:100320003B464FF40060C4F20200194600F0B8F8F2
:100330004FF40060C4F20200012100F073F92023A1
:100340003B6000233B710023FB7100237B713B4624
:100350004FF44060C4F20200194600F0A1F80837DB
:10036000BD4680BD80B483B000AF00237B6002E057
:100370007B6801337B607A6844F23F23C0F20F034D
:100380009A42F5D90C37BD465DF8047B704700BF33
:1003900080B500AFFFF72CFF0020C4F2020001215E
:1003A00000F026F90346002B50D04FF44060C4F211
:1003B00002004FF4805100F035F9FFF7D3FF4FF4FE
:1003C0004060C4F202004FF4805100F039F9FFF7A9
:1003D000C9FF4FF44060C4F202004FF4005100F036
:1003E00021F9FFF7BFFF4FF44060C4F202004FF461
:1003F000005100F025F9FFF7B5FF4FF44060C4F25B
:1004000002004FF4804100F00DF9FFF7ABFF4FF40D
:100410004060C4F202004FF4804100F011F9FFF790
:10042000A1FF4FF44060C4F202004FF4004100F01D
:10043000F9F8FFF797FF4FF44060C4F202004FF461
:10044000004100F0FDF8FFF78DFFA5E7A4E700BF2E
:1004500080B483B000AF78600B46FB70FB78002B54
:100460000CD04FF46053C4F202034FF46052C4F254
:100470000202116B7A680A431A630CE04FF460536E
:10048000C4F202034FF46052C4F20202116B7A68A4
:10049000D2430A401A630C37BD465DF8047B7047AF
:1004A00080B487B000AF7860396000237B6100239F
:1004B0003B610023FB6000237B6176E07B690122C6
:1004C00002FA03F33B613B681A683B691340FB6027
:1004D000FA683B699A4265D17B681A687B695B0060
:1004E000032101FA03F3DB431A407B681A607B683F
:1004F0001A683B681B7919467B695B0001FA03F3B4
:100500001A437B681A603B681B79012B03D03B6858
:100510001B79022B2ED17B689A687B695B000321D3
:1005200001FA03F3DB431A407B689A607B689A68A0
:100530003B685B7919467B695B0001FA03F31A4358
:100540007B689A607B685A687B699BB2012101FADB
:1005500003F3DB431A407B685A607B685A683B6848
:100560009B7919467B699BB201FA03F39BB21A434C
:100570007B685A607B68DA687B699BB25B00032109
:1005800001FA03F3DB431A407B68DA607B68DA68C0
:100590003B68DB7919467B695B0001FA03F31A4378
:1005A0007B68DA607B6901337B617B690F2B85D9BE
:1005B0001C37BD465DF8047B704700BF80B483B034
:1005C00000AF78607B684FF6FF721A607B6800228C
:1005D0001A717B6800225A717B6800229A717B68CD
:1005E0000022DA710C37BD465DF8047B704700BF0E
:1005F00080B485B000AF78600B467B800023FB732E
:100600007B681A697B881340002B02D00123FB739F
:1006100001E00023FB73FB7B18461437BD465DF8F1
:10062000047B704780B483B000AF78600B467B805A
:100630007B687A881A830C37BD465DF8047B704767
:1006400080B483B000AF78600B467B807B687A888B
:100650005A830C37BD465DF8047B704780B483B085
:1006600000AF786013460A467A807B707B78002B57
:1006700003D07B687A881A8302E07B687A885A8381
:0C0680000C37BD465DF8047B704700BFDE
:0400000508000000EF
:00000001FF
