:020000040800F2
:10000000F00D00208D070008ED070008ED0700083F
:10001000ED070008ED070008ED07000800000000EC
:10002000000000000000000000000000ED070008D4
:10003000ED07000800000000ED070008290800088F
:10004000ED070008ED070008ED070008ED070008C0
:10005000ED070008ED070008ED070008ED070008B0
:10006000ED070008ED070008ED070008ED070008A0
:10007000ED070008ED070008ED070008ED07000890
:10008000ED070008ED070008ED070008ED07000880
:10009000ED070008ED070008ED070008ED07000870
:1000A000ED070008ED070008ED070008ED07000860
:1000B000ED070008ED070008ED070008ED07000850
:1000C000ED070008ED070008ED070008ED07000840
:1000D000ED070008ED070008ED070008ED07000830
:1000E000ED070008ED070008ED070008ED07000820
:1000F000ED070008ED070008ED070008ED07000810
:10010000ED070008ED070008ED070008ED070008FF
:10011000ED070008ED070008ED070008ED070008EF
:10012000ED070008ED070008ED070008ED070008DF
:10013000ED070008ED070008ED070008ED070008CF
:10014000ED070008ED070008ED070008ED070008BF
:10015000ED070008ED070008ED070008ED070008AF
:10016000ED070008ED070008ED070008ED0700089F
:10017000ED070008ED070008ED070008ED0700088F
:10018000ED070008ED07000880B483B000AF034618
:100190003960FB7197F90730002B0EDA4FF46D438D
:1001A000CEF20003FA7902F00F02111F3A68D2B2C0
:1001B0001201D2B20B441A760CE04FF46143CEF236
:1001C000000397F907103A68D2B21201D2B20B4479
:1001D00083F800230C37BD465DF8047B704700BFF1
:1001E00080B582B000AF78607B68B3F1807F01D3C7
:1001F00001231AE04EF21003CEF200037A6822F0D7
:100200007F42013A5A604FF0FF300F21FFF7BCFFE9
:100210004EF21003CEF2000300229A604EF2100359
:10022000CEF2000307221A60002318460837BD46A5
:1002300080BD00BF80B582B000AF00F0B1F80023F0
:100240003B710223FB7100237B713B46184600F093
:100250005DFE49F6FF733B6000233B710023FB7199
:1002600003237B713B460020C4F20200194600F0D4
:10027000BFFD3B46184600F049FEC0233B6000230B
:10028000BB7102233B7103237B710123FB713B464E
:100290004FF40060C4F20200194600F0A9FD3B468D
:1002A000184600F033FE40F6FF733B6001233B71BC
:1002B0000023BB710023FB7103237B713B464FF48A
:1002C0004060C4F20200194600F092FD4FF4704302
:1002D0003B6002233B713B464FF44060C4F2020096
:1002E000194600F085FD3B46184600F00FFE04233A
:1002F0003B6002233B710023BB710023FB7103238E
:100300007B713B460020C4F20200194600F070FDEC
:100310003B46184600F0FAFDC0233B6002233B71C8
:1003200003237B710023BB710023FB713B464FF419
:100330008060C4F20200194600F05AFD4FF440609C
:10034000C4F202000C21022200F030FE4FF44060A3
:10035000C4F202000D21022200F028FE4FF440609A
:10036000C4F202000E21022200F020FE4FF4406091
:10037000C4F202000F21022200F018FE4FF40060C8
:10038000C4F202000621022200F010FE0020C4F296
:1003900002000221072200F009FE0837BD4680BD99
:1003A00080B500AF9F20012100F0AAFC0020C1F21F
:1003B0000200012100F0CCFC4FF48040012100F04C
:1003C000EFFC80BD80B582B000AF786000F07CFEAD
:1003D00040F21003C2F200031B68184602F042F814
:1003E00003461846796802F095F80346184602F06D
:1003F00057FA03461846FFF7F3FE0837BD4680BD9F
:1004000080B584B000AF0220012100F0A1FC0420DF
:10041000012100F09DFC43F25043BB800023FB8090
:100420006423BB604FF40073BB810023BB733B1D8F
:100430004FF48060C4F20000194600F0F1FF3B1D4C
:100440004FF40060C4F20000194600F0E9FF4FF4D9
:100450008060C4F20000012101F058F84FF4006000
:10046000C4F20000012101F051F81037BD4680BDF3
:1004700080B586B000AF6023BB800123FB800023E2
:100480003B820023FB603B1D4FF40060C4F2000080
:10049000194601F05BF84FF40060C4F20000082137
:1004A00001F07CFA3B1D4FF40060C4F200001946D5
:1004B00001F0C6F84FF40060C4F20000082101F01A
:1004C00089FA3B1D4FF40060C4F20000194601F0A8
:1004D0003FF94FF40060C4F20000082101F098FADF
:1004E0003B1D4FF40060C4F20000194601F0B6F95C
:1004F0004FF40060C4F20000082101F0A5FA3B1D92
:100500004FF48060C4F20000194601F01FF84FF468
:100510008060C4F20000082101F040FA1837BD469F
:1005200080BD00BF80B584B000AF4FF416433B6080
:100530000023BB800023FB8000233B810023BB8181
:100540000C237B813B464FF48840C4F200001946DF
:1005500000F00AF84FF48840C4F20000012100F0D6
:10056000C7F81037BD4680BD80B58AB000AF78604F
:10057000396000237B6200233B620023FB61002380
:10058000BB617B681B8A9BB27B627B6A23F440530E
:100590007B623B68DB887A6A13437B627B6A9AB230
:1005A0007B681A827B689B899BB27B627B6A23F49F
:1005B000B05323F00C037B623B689A883B681B892D
:1005C00013439AB23B685B8913439BB27A6A134325
:1005D0007B627B6A9AB27B689A817B689B8A9BB2BA
:1005E0007B627B6A23F440737B623B689B897A6AF7
:1005F00013437B627B6A9AB27B689A8207F1080395
:10060000184600F0A9FA7A684FF48053C4F2010347
:100610009A4206D07A684FF4A053C4F201039A427A
:1006200002D17B693B6201E03B693B627B689B894D
:100630009BB29BB21BB2002B0CDA3A6A13469B00AA
:1006400013449A001A443B681B685B00B2FBF3F347
:10065000FB610BE03A6A13469B0013449A001A446C
:100660003B681B689B00B2FBF3F3FB61FA6948F23D
:100670001F53C5F2EB13A3FB02135B091B017B6243
:100680007B6A1B09642202FB03F3FA69D31ABB617C
:100690007B689B899BB29BB21BB2002B10DABB69B3
:1006A000DB0003F1320248F21F53C5F2EB13A3FB48
:1006B00002135B0903F007037A6A13437B620FE0BE
:1006C000BB691B0103F1320248F21F53C5F2EB1361
:1006D000A3FB02135B0903F00F037A6A13437B62E7
:1006E0007B6A9AB27B681A812837BD4680BD00BFFD
:1006F00080B483B000AF78600B46FB70FB78002BB2
:1007000008D07B689B899BB243F400539AB27B6804
:100710009A8107E07B689B899BB223F400539AB2CD
:100720007B689A810C37BD465DF8047B704700BF3B
:1007300080B483B000AF78600B467B807B88C3F3C6
:1007400008039AB27B689A800C37BD465DF8047B3B
:10075000704700BF80B485B000AF78600B467B80E7
:100760000023FB737B681B889AB27B8813409BB283
:10077000002B02D00123FB7301E00023FB73FB7B02
:1007800018461437BD465DF8047B704780B582B0CB
:1007900000AF48F23833C0F600037B6040F200033C
:1007A000C2F200033B6007E03B681A1D3A607A68BA
:1007B000111D796012681A603A6840F2A453C2F2BF
:1007C00000039A42F0D3074807494FF000028842DD
:1007D000B8BF40F8042BFADB00F04AF80837BD46F2
:1007E00080BD0000A4050020EC05002080B400AF0F
:1007F000FEE700BF80B500AF4FF00060002100F0C1
:10080000F9FD00F019FCFFF715FDFFF78BFE41F233
:100810006F20C3F68320FFF7D5FDFFF7F1FDFFF74B
:1008200027FE80BD0000000080B500AF40F2A45359
:10083000C2F200031B68184601F088FA02460B4614
:100840001046194608A3D3E9002301F021F9024616
:100850000B461046194601F0FFFC024640F2A45335
:10086000C2F200031A6080BDFCA9F1D24D62503F74
:1008700080B588B000AF0023FB610123BB613B1D45
:1008800000221A60043300221A60043300221A6026
:10089000043300221A60043300221A600433FFF785
:1008A000A9FF40F2A453C2F200031B6818464FF0A0
:1008B0007E5101F0E1FF0346002B00F0C48040F2BE
:1008C000A453C2F200034FF000021A60FB69082B28
:1008D00002DD0023BB6104E0FB69002B01D1012391
:1008E000BB61BB69012B03D1FB690133FB6102E0F2
:1008F000FB69013BFB61FB694FF4FA7202FB03F3F6
:10090000184601F011FA02460B461046194654A348
:10091000D3E9002301F06EFA02460B461046194651
:1009200001F07AFC03464FF40060C4F2000019465F
:1009300001F026F8FB694FF47A7202FB03F31846C4
:1009400001F0F2F902460B461046194644A3D3E9DA
:10095000002301F04FFA02460B461046194601F0FB
:100960005BFC03464FF40060C4F20000194600F03F
:10097000F9FFFB694FF4FA6202FB03F3184601F03A
:10098000D3F902460B461046194635A3D3E9002396
:1009900001F030FA02460B461046194601F03CFCC5
:1009A00003464FF40060C4F20000194600F0CCFF8B
:1009B000FB6940F6B83202FB03F3184601F0B4F9C4
:1009C00002460B461046194625A3D3E9002301F041
:1009D00011FA02460B461046194601F01DFC03466B
:1009E0004FF40060C4F20000194600F09FFFFB695D
:1009F0004FF47A7202FB03F3184601F095F90246B0
:100A00000B461046194616A3D3E9002301F0F2F96C
:100A100002460B461046194601F0FEFB03464FF412
:100A20008060C4F20000194600F080FF3B1D1846AC
:100A300048F25411C0F60001FA6901F073FF3B1D42
:100A4000184600F063F80020C4F20200012100F013
:100A500077FA0346184600F007F822E7AFF3008064
:100A60007B14AE47E17A843F80B582B000AF7860F6
:100A70007B68002B19DD40F2A853C2F200031B680B
:100A8000012B12D140F2AC53C2F200031B68C3F138
:100A9000010240F2AC53C2F200031A6040F2A853C4
:100AA000C2F2000300221A6008E07B68002B05D127
:100AB00040F2A853C2F2000301221A6040F2AC5384
:100AC000C2F200031B68012B0ED14FF44060C4F248
:100AD0000200022100F04EFA4FF44060C4F202001E
:100AE000012100F055FA0DE04FF44060C4F202001D
:100AF000012100F03FFA4FF44060C4F202000221ED
:100B000000F046FA0837BD4680BD00BF80B584B00E
:100B100000AF78607B68FB6016E000BF4FF4884050
:100B2000C4F200008021FFF715FE0346002BF5D02C
:100B3000FB681B784FF48840C4F200001946FFF7A9
:100B4000F7FDFB680133FB60FB681B78002BE4D1E9
:100B50001037BD4680BD00BF80B489B000AF78605B
:100B60000023BB6100237B610023FB6102233B6107
:100B70000023FB600223BB604FF46053C4F2020306
:100B80009B6803F00C03BB61BB69042B0AD0082BE4
:100B90000FD0002B5AD17A684FF41053C0F2F403EF
:100BA00013605AE07A684FF49053C0F27A031360EE
:100BB00053E04FF46053C4F202035B6803F4800314
:100BC0009B0DFB604FF46053C4F202035B6803F0BB
:100BD0003F03BB60FB68002B13D04FF49053C0F26F
:100BE0007A03BA68B3FBF2F24FF46053C4F2020323
:100BF000596847F6C0730B409B0903FB02F3FB6186
:100C000012E04FF41053C0F2F403BA68B3FBF2F2EF
:100C10004FF46053C4F20203596847F6C0730B40A7
:100C20009B0903FB02F3FB614FF46053C4F2020320
:100C30005B6803F440331B0C01335B003B61FA69D2
:100C40003B69B2FBF3F27B681A6006E07A684FF406
:100C50001053C0F2F403136000BF4FF46053C4F2AA
:100C600002039B6803F0F003BB61BB691B09BB6116
:100C700040F20003C2F20003BA6913441B78DBB2EE
:100C80007B617B681A687B69DA407B685A604FF445
:100C90006053C4F202039B6803F4E053BB61BB6979
:100CA0009B0ABB6140F20003C2F20003BA6913441D
:100CB0001B78DBB27B617B685A687B69DA407B68B2
:100CC0009A604FF46053C4F202039B6803F46043DC
:100CD000BB61BB695B0BBB6140F20003C2F2000366
:100CE000BA6913441B78DBB27B617B685A687B6905
:100CF000DA407B68DA602437BD465DF8047B7047D4
:100D000080B483B000AF78600B46FB70FB78002B9B
:100D10000CD04FF46053C4F202034FF46052C4F29B
:100D20000202116B7A680A431A630CE04FF46053B5
:100D3000C4F202034FF46052C4F20202116B7A68EB
:100D4000D2430A401A630C37BD465DF8047B7047F6
:100D500080B483B000AF78600B46FB70FB78002B4B
:100D60000CD04FF46053C4F202034FF46052C4F24B
:100D70000202116C7A680A431A640CE04FF4605363
:100D8000C4F202034FF46052C4F20202116C7A689A
:100D9000D2430A401A640C37BD465DF8047B7047A5
:100DA00080B483B000AF78600B46FB70FB78002BFB
:100DB0000CD04FF46053C4F202034FF46052C4F2FB
:100DC0000202516C7A680A435A640CE04FF4605393
:100DD000C4F202034FF46052C4F20202516C7A680A
:100DE000D2430A405A640C37BD465DF8047B704715
:100DF00080B487B000AF7860396000237B61002346
:100E00003B610023FB6000237B6176E07B6901226C
:100E100002FA03F33B613B681A683B691340FB60CD
:100E2000FA683B699A4265D17B681A687B695B0006
:100E3000032101FA03F3DB431A407B681A607B68E5
:100E40001A683B681B7919467B695B0001FA03F35A
:100E50001A437B681A603B681B79012B03D03B68FF
:100E60001B79022B2ED17B689A687B695B0003217A
:100E700001FA03F3DB431A407B689A607B689A6847
:100E80003B685B7919467B695B0001FA03F31A43FF
:100E90007B689A607B685A687B699BB2012101FA82
:100EA00003F3DB431A407B685A607B685A683B68EF
:100EB0009B7919467B699BB201FA03F39BB21A43F3
:100EC0007B685A607B68DA687B699BB25B000321B0
:100ED00001FA03F3DB431A407B68DA607B68DA6867
:100EE0003B68DB7919467B695B0001FA03F31A431F
:100EF0007B68DA607B6901337B617B690F2B85D965
:100F00001C37BD465DF8047B704700BF80B483B0DA
:100F100000AF78607B684FF6FF721A607B68002232
:100F20001A717B6800225A717B6800229A717B6873
:100F30000022DA710C37BD465DF8047B704700BFB4
:100F400080B485B000AF78600B467B800023FB73D4
:100F50007B681A697B881340002B02D00123FB7346
:100F600001E00023FB73FB7B18461437BD465DF898
:100F7000047B704780B483B000AF78600B467B8001
:100F80007B687A881A830C37BD465DF8047B70470E
:100F900080B483B000AF78600B467B807B687A8832
:100FA0005A830C37BD465DF8047B704780B485B02A
:100FB00000AF786013460A467A807B700023FB609E
:100FC0000023BB607A787B8803F007039B0002FA5A
:100FD00003F3FB607B88DB089BB21A467B88DB0847
:100FE0009BB219467B68083153F821107B8803F0C7
:100FF00007039B000F2000FA03F3DB4319407B68D3
:10100000083243F822107B88DB089BB21A467B68C3
:10101000083253F82220FB681343BB607B88DB084F
:101020009BB21A467B680832B96843F8221014371D
:10103000BD465DF8047B704780B500AF4FF4605348
:10104000C4F202034FF46052C4F20202126842F08A
:1010500001021A604FF46053C4F2020300229A6046
:101060004FF46053C4F202034FF46052C4F2020220
:10107000126822F0847222F480321A604FF46053B6
:10108000C4F2020343F21002C2F200425A604FF46B
:101090006053C4F202034FF46052C4F202021268B9
:1010A00022F480221A604FF46053C4F2020300223B
:1010B000DA6000F0B3F84FF46D43CEF200034FF066
:1010C00000629A6080BD00BF80B487B000AF00238B
:1010D0003B6100237B610223FB600023BB60022392
:1010E0007B604FF46053C4F202039B6803F00C036F
:1010F0003B613B69042B0DD0082B15D0002B63D12D
:1011000040F21003C2F200034FF41052C0F2F40296
:101110001A6063E040F21003C2F200034FF49052F1
:10112000C0F27A021A6059E04FF46053C4F202032D
:101130005B6803F480039B0DBB604FF46053C4F203
:1011400002035B6803F03F037B60BB68002B13D096
:101150004FF49053C0F27A037A68B3FBF2F24FF483
:101160006053C4F20203596847F6C0730B409B09F1
:1011700003FB02F37B6112E04FF41053C0F2F4035F
:101180007A68B3FBF2F24FF46053C4F20203596879
:1011900047F6C0730B409B0903FB02F37B614FF4DE
:1011A0006053C4F202035B6803F440331B0C013349
:1011B0005B00FB607A69FB68B2FBF3F240F210035C
:1011C000C2F200031A6009E040F21003C2F2000309
:1011D0004FF41052C0F2F4021A6000BF4FF4605393
:1011E000C4F202039B6803F0F0031A0940F21403EF
:1011F000C2F200039B5CDBB23B6140F21003C2F21F
:1012000000031A683B69DA4040F21003C2F200039F
:101210001A601C37BD465DF8047B704780B483B00C
:1012200000AF00237B6000233B604FF46053C4F2A7
:1012300002034FF46052C4F20202126842F4803298
:101240001A604FF46053C4F202031B6803F40033C6
:101250003B607B6801337B603B68002B03D17B687C
:10126000B3F5A06FEDD14FF46053C4F202031B68D5
:1012700003F40033002B02D001233B6001E0002384
:101280003B603B68012B40F082804FF46053C4F216
:1012900002034FF46052C4F20202126C42F0805218
:1012A0001A644FF4E043C4F200034FF4E042C4F286
:1012B0000002126842F480421A604FF46053C4F294
:1012C00002034FF46052C4F2020292689A604FF433
:1012D0006053C4F202034FF46052C4F202029268F7
:1012E00042F400429A604FF46053C4F202034FF498
:1012F0006052C4F20202926842F4A0529A604FF423
:101300006053C4F2020345F20842C0F240725A60D0
:101310004FF46053C4F202034FF46052C4F202026D
:10132000126842F080721A6000BF4FF46053C4F23A
:1013300002031B6803F00073002BF6D04FF47053C8
:10134000C4F2020340F205621A604FF46053C4F223
:1013500002034FF46052C4F20202926822F00302C8
:101360009A604FF46053C4F202034FF46052C4F227
:101370000202926842F002029A6000BF4FF460538A
:10138000C4F202039B6803F00C03082BF6D10C3760
:10139000BD465DF8047B704780B485B000AF7860CF
:1013A00040F2B053C2F200031B68002B08D140F298
:1013B000B053C2F2000340F2EC52C2F200021A60D3
:1013C00040F2B053C2F200031B68FB6040F2B0531E
:1013D000C2F200031A687B681A4440F2B053C2F2AA
:1013E00000031A60FB6818461437BD465DF8047B9D
:1013F000704700BF80B483B000AF786039604FF4AD
:101400006D43CEF200033A6822F0604222F07F0280
:1014100079680A439A600C37BD465DF8047B7047D3
:1014200080B485B000AF786039600023FB817B68B1
:101430001B88FB817A680023C4F201039A421FD003
:101440007A684FF48063C4F201039A4218D07B6833
:10145000B3F1804F14D07A684FF48063C4F2000374
:101460009A420DD07A684FF40063C4F200039A42A6
:1014700006D07A684FF44063C4F200039A4208D160
:10148000FB8923F07003FB813B685A88FB89134377
:10149000FB817A684FF48053C4F200039A420FD064
:1014A0007A684FF4A053C4F200039A4208D0FB8933
:1014B00023F44073FB813B681A89FB891343FB814A
:1014C0007B68FA891A803B685A687B68DA623B68F5
:1014D0001A887B681A857A680023C4F201039A424D
:1014E00006D07A684FF48063C4F201039A4204D1B3
:1014F0003B689B7A1A467B681A867B6801229A822F
:101500001437BD465DF8047B704700BF80B483B0DC
:1015100000AF78600B46FB70FB78002B08D07B682F
:101520001B889BB243F001039AB27B681A8007E0E4
:101530007B681B889BB223F001039AB27B681A80F8
:101540000C37BD465DF8047B704700BF80B485B0A2
:1015500000AF7860396000237B810023FB8100238A
:10156000BB817B681B8C9BB223F001039AB27B6822
:101570001A847B681B8CFB817B689B88BB817B68A2
:101580001B8B7B817B8923F070037B817B8923F01C
:1015900003037B813B681A887B8913437B81FB892A
:1015A00023F00203FB813B689A89FB891343FB818B
:1015B0003B685A88FB891343FB817A680023C4F295
:1015C00001039A4206D07A684FF48063C4F20103A3
:1015D0009A4223D1FB8923F00803FB813B68DA8917
:1015E000FB891343FB81FB8923F00403FB813B68E8
:1015F0009A88FB891343FB81BB8923F48073BB81E9
:10160000BB8923F40073BB813B681A8ABB891343EF
:10161000BB813B685A8ABB891343BB817B68BA890B
:101620009A807B687A891A833B689A687B685A63D8
:101630007B68FA891A841437BD465DF8047B7047CD
:1016400080B485B000AF7860396000237B810023CF
:10165000FB810023BB817B681B8C9BB223F01003B2
:101660009AB27B681A847B681B8CFB817B689B88A1
:10167000BB817B681B8B7B817B8923F4E0437B816F
:101680007B8923F440737B813B681B881B029AB2E1
:101690007B8913437B81FB8923F02003FB813B681B
:1016A0009B891B019AB2FB891343FB813B685B88D2
:1016B0001B019AB2FB891343FB817A680023C4F2B1
:1016C00001039A4206D07A684FF48063C4F20103A2
:1016D0009A422BD1FB8923F08003FB813B68DB8995
:1016E0001B019AB2FB891343FB81FB8923F0400362
:1016F000FB813B689B881B019AB2FB891343FB81EA
:10170000BB8923F48063BB81BB8923F40063BB8165
:101710003B681B8A9B009AB2BB891343BB813B6821
:101720005B8A9B009AB2BB891343BB817B68BA89F1
:101730009A807B687A891A833B689A687B689A6387
:101740007B68FA891A841437BD465DF8047B7047BC
:1017500080B485B000AF7860396000237B810023BE
:10176000FB810023BB817B681B8C9BB223F48073BD
:101770009AB27B681A847B681B8CFB817B689B8890
:10178000BB817B689B8B7B817B8923F070037B8192
:101790007B8923F003037B813B681A887B89134391
:1017A0007B81FB8923F40073FB813B689B891B02CF
:1017B0009AB2FB891343FB813B685B881B029AB298
:1017C000FB891343FB817A680023C4F201039A4228
:1017D00006D07A684FF48063C4F201039A422BD199
:1017E000FB8923F40063FB813B68DB891B029AB20F
:1017F000FB891343FB81FB8923F48063FB813B68F6
:101800009B881B029AB2FB891343FB81BB8923F49B
:101810008053BB81BB8923F40053BB813B681B8A87
:101820001B019AB2BB891343BB813B685B8A1B01D6
:101830009AB2BB891343BB817B68BA899A807B6863
:101840007A899A833B689A687B68DA637B68FA894D
:101850001A841437BD465DF8047B704780B485B0A8
:1018600000AF786039600023BB8100237B810023B7
:10187000FB817B681B8C9BB223F480539AB27B68FC
:101880001A847B681B8C7B817B689B88FB817B68CF
:101890009B8BBB81BB8923F4E043BB81BB8923F4D1
:1018A0004073BB813B681B881B029AB2BB89134300
:1018B000BB817B8923F400537B813B689B891B039D
:1018C0009AB27B8913437B813B685B881B039AB286
:1018D0007B8913437B817A680023C4F201039A4217
:1018E00006D07A684FF48063C4F201039A420AD1A9
:1018F000FB8923F48043FB813B681B8A9B019AB2DE
:10190000FB891343FB817B68FA899A807B68BA89DB
:101910009A833B689A687B681A647B687A891A8420
:101920001437BD465DF8047B704700BF80B483B0B8
:1019300000AF786039607B683A685A630C37BD46FF
:101940005DF8047B704700BF80B483B000AF78605F
:1019500039607B683A689A630C37BD465DF8047B52
:10196000704700BF80B483B000AF786039607B6897
:101970003A68DA630C37BD465DF8047B704700BFF8
:1019800080B483B000AF786039607B683A681A64CD
:101990000C37BD465DF8047B704700BF80B485B04E
:1019A00000AF78600B467B800023FB817B681B8B3C
:1019B000FB81FB8923F00803FB81FA897B881343B1
:1019C000FB817B68FA891A831437BD465DF8047B76
:1019D000704700BF80B485B000AF78600B467B8055
:1019E0000023FB817B681B8BFB81FB8923F4006355
:1019F000FB817B881B029AB2FB891343FB817B68C6
:101A0000FA891A831437BD465DF8047B704700BF1E
:101A100080B485B000AF78600B467B800023FB81EB
:101A20007B689B8BFB81FB8923F00803FB81FA8990
:101A30007B881343FB817B68FA899A831437BD4600
:101A40005DF8047B704700BF80B485B000AF78605C
:101A50000B467B800023FB817B689B8BFB81FB8992
:101A600023F40063FB817B881B029AB2FB8913433A
:101A7000FB817B68FA899A831437BD465DF8047B45
:101A8000704700BF81F0004102E000BF83F00043D7
:101A900030B54FEA41044FEA430594EA050F08BF09
:101AA00090EA020F1FBF54EA000C55EA020C7FEACD
:101AB000645C7FEA655C00F0E2804FEA5454D4EB4A
:101AC0005555B8BF6D420CDD2C4480EA020281EA14
:101AD000030382EA000083EA010180EA020281EA4C
:101AE0000303362D88BF30BD11F0004F4FEA01319E
:101AF0004FF4801C4CEA113102D0404261EB4101AD
:101B000013F0004F4FEA03334CEA133302D0524232
:101B100063EB430394EA050F00F0A780A4F10104EE
:101B2000D5F1200E0DDB02FA0EFC22FA05F2801828
:101B300041F1000103FA0EF2801843FA05F359410E
:101B40000EE0A5F120050EF1200E012A03FA0EFC8D
:101B500028BF4CF0020C43FA05F3C01851EBE371B7
:101B600001F0004507D54FF0000EDCF1000C7EEBD4
:101B700000006EEB0101B1F5801F1BD3B1F5001F12
:101B80000CD349085FEA30004FEA3C0C04F1010431
:101B90004FEA445212F5800F80F09A80BCF1004F5A
:101BA00008BF5FEA500C50F1000041EB045141EADC
:101BB000050130BD5FEA4C0C404141EB010111F4DD
:101BC000801FA4F10104E9D191F0000F04BF014688
:101BD0000020B1FA81F308BF2033A3F10B03B3F166
:101BE00020020CDA0C3208DD02F1140CC2F10C02F6
:101BF00001FA0CF021FA02F10CE002F11402D8BF54
:101C0000C2F1200C01FA02F120FA0CFCDCBF41EA1F
:101C10000C019040E41AA2BF01EB0451294330BDEE
:101C20006FEA04041F3C1CDA0C340EDC04F11404CB
:101C3000C4F1200220FA04F001FA02F340EA0300A2
:101C400021FA04F345EA030130BDC4F10C04C4F1E8
:101C5000200220FA02F001FA04F340EA03002946C8
:101C600030BD21FA04F0294630BD94F0000F83F412
:101C7000801306BF81F480110134013D4EE77FEAF5
:101C8000645C18BF7FEA655C29D094EA050F08BF41
:101C900090EA020F05D054EA000C04BF1946104622
:101CA00030BD91EA030F1EBF0021002030BD5FEA66
:101CB000545C05D14000494128BF41F0004130BD8E
:101CC00014F580043CBF01F5801130BD01F00045E2
:101CD00045F0FE4141F470014FF0000030BD7FEA55
:101CE000645C1ABF194610467FEA655C1CBF0B4650
:101CF000024650EA013406BF52EA033591EA030F67
:101D000041F4002130BD00BF90F0000F04BF00215E
:101D1000704730B54FF4806404F132044FF0000591
:101D20004FF0000150E700BF90F0000F04BF00210A
:101D3000704730B54FF4806404F1320410F0004570
:101D400048BF40424FF000013EE700BF42004FEA6B
:101D5000E2014FEA31014FEA02701FBF12F07F43E8
:101D600093F07F4F81F06051704792F0000F14BFE5
:101D700093F07F4F704730B54FF4607401F0004529
:101D800021F0004120E700BF50EA010208BF704780
:101D900030B54FF000050AE050EA010208BF704775
:101DA00030B511F0004502D5404261EB41014FF4DE
:101DB000806404F132045FEA915C3FF4DCAE4FF0E2
:101DC00003025FEADC0C18BF03325FEADC0C18BFC9
:101DD000033202EBDC02C2F1200300FA03FC20FA1A
:101DE00002F001FA03FE40EA0E0021FA02F1144467
:101DF000C1E600BF70B54FF0FF0C4CF4E06C1CEA7C
:101E000011541DBF1CEA135594EA0C0F95EA0C0FF0
:101E100000F0DEF82C4481EA030621EA4C5123EA63
:101E20004C5350EA013518BF52EA033541F4801192
:101E300043F4801338D0A0FB02CE4FF00005E1FB45
:101E400002E506F00042E0FB03E54FF00006E1FB8F
:101E500003569CF0000F18BF4EF0010EA4F1FF04D2
:101E6000B6F5007F64F5407404D25FEA4E0E6D4112
:101E700046EB060642EAC62141EA55514FEAC52023
:101E800040EA5E504FEACE2EB4F1FD0C88BFBCF59F
:101E9000E06F1ED8BEF1004F08BF5FEA500E50F150
:101EA000000041EB045170BD06F0004646EA010116
:101EB00040EA020081EA0301B4EB5C04C2BFD4EB48
:101EC0000C0541EA045170BD41F480114FF0000E41
:101ED000013C00F3AB8014F1360FDEBF002001F0AF
:101EE000004170BDC4F10004203C35DA0C341BDC29
:101EF00004F11404C4F1200500FA05F320FA04F0FB
:101F000001FA05F240EA020001F0004221F000412E
:101F100010EBD37021FA04F642EB06015EEA430EA1
:101F200008BF20EAD37070BDC4F10C04C4F12005D1
:101F300000FA04F320FA05F001FA04F240EA020084
:101F400001F0004110EBD37041F100015EEA430E55
:101F500008BF20EAD37070BDC4F1200500FA05F275
:101F60004EEA020E20FA04F301FA05F243EA0203F4
:101F700021FA04F001F0004121FA04F220EA020003
:101F800000EBD3705EEA430E08BF20EAD37070BD49
:101F900094F0000F0FD101F00046400041EB010129
:101FA00011F4801F08BF013CF7D041EA060195F00B
:101FB000000F18BF704703F00046520043EB0303C5
:101FC00013F4801F08BF013DF7D043EA06037047B2
:101FD00094EA0C0F0CEA135518BF95EA0C0F0CD0BD
:101FE00050EA410618BF52EA4306D1D181EA030103
:101FF00001F000414FF0000070BD50EA410606BFFD
:102000001046194652EA430619D094EA0C0F02D141
:1020100050EA013613D195EA0C0F05D152EA033686
:102020001CBF104619460AD181EA030101F00041A4
:1020300041F0FE4141F470014FF0000070BD41F0ED
:10204000FE4141F4780170BD70B54FF0FF0C4CF4C7
:10205000E06C1CEA11541DBF1CEA135594EA0C0FE6
:1020600095EA0C0F00F0A7F8A4EB050481EA030E33
:1020700052EA03354FEA013100F088804FEA03331A
:102080004FF0805545EA131343EA12634FEA0222E8
:1020900045EA111545EA10654FEA00260EF00041A9
:1020A0009D4208BF964244F1FD0404F5407402D2FB
:1020B0005B084FEA3202B61A65EB03055B084FEA8C
:1020C00032024FF480104FF4002CB6EB020E75EB89
:1020D000030E22BFB61A754640EA0C005B084FEAB1
:1020E0003202B6EB020E75EB030E22BFB61A75462E
:1020F00040EA5C005B084FEA3202B6EB020E75EB79
:10210000030E22BFB61A754640EA9C005B084FEAF0
:102110003202B6EB020E75EB030E22BFB61A7546FD
:1021200040EADC0055EA060E18D04FEA051545EAEC
:1021300016754FEA06164FEAC30343EA52734FEA95
:10214000C2025FEA1C1CC0D111F4801F0BD141EA0E
:1021500000014FF000004FF0004CB6E711F4801F73
:1021600004BF01430020B4F1FD0C88BFBCF5E06F53
:102170003FF6AFAEB5EB030C04BFB6EB020C5FEA63
:10218000500C50F1000041EB045170BD0EF0004EB8
:102190004EEA113114EB5C04C2BFD4EB0C0541EAEA
:1021A000045170BD41F480114FF0000E013C90E6E7
:1021B00045EA060E8DE60CEA135594EA0C0F08BFAB
:1021C00095EA0C0F3FF43BAF94EA0C0F0AD150EAAA
:1021D00001347FF434AF95EA0C0F7FF425AF10463D
:1021E00019462CE795EA0C0F06D152EA03353FF465
:1021F000FDAE1046194622E750EA410618BF52EAE2
:1022000043067FF4C5AE50EA41047FF40DAF52EAB5
:1022100043057FF4EBAE12E74A0011D212F500122B
:1022200011D20DD56FF47873B3EB62520ED44FEA2E
:10223000C12343F0004343EA505323FA02F07047AE
:102240004FF00000704750EA013002D14FF0FF30EC
:1022500070474FF0000070474FEA4102B2F1E0438F
:1022600024BFB3F5001CDCF1FE5C0DD901F0004C7D
:102270004FEAC0024CEA5070B2F1004F40EB8300CD
:1022800008BF20F00100704711F0804F21D113F1F9
:102290003872BCBF01F00040704741F480114FEA32
:1022A0005252C2F11802C2F1200C10FA0CF320FABB
:1022B00002F018BF40F001004FEAC1234FEAD323D8
:1022C00003FA0CFC40EA0C0023FA02F34FEA430342
:1022D000CCE77FEA625307D150EA01331EBF4FF0CB
:1022E000FE4040F44000704701F0004040F0FE40E6
:1022F00040F40000704700BF80F0004002E000BFE3
:1023000081F0004142001FBF5FEA410392EA030FE0
:102310007FEA226C7FEA236C6AD04FEA1262D2EB2A
:102320001363C1BFD218414048404140B8BF5B422F
:10233000192B88BF704710F0004F40F4000020F0C8
:102340007F4018BF404211F0004F41F4000121F0DE
:102350007F4118BF494292EA030F3FD0A2F1010228
:1023600041FA03FC10EB0C00C3F1200301FA03F166
:1023700000F0004302D5494260EB4000B0F5000F89
:1023800013D3B0F1807F06D340084FEA310102F148
:102390000102FE2A51D2B1F1004F40EBC25008BFFA
:1023A00020F0010040EA03007047490040EB0000C4
:1023B00010F4000FA2F10102EDD1B0FA80FCACF1F3
:1023C000080CB2EB0C0200FA0CF0AABF00EBC250F2
:1023D00052421843BCBFD0401843704792F0000FE0
:1023E00081F4000106BF80F400000132013BB5E733
:1023F0004FEA41037FEA226C18BF7FEA236C21D0A9
:1024000092EA030F04D092F0000F08BF084670470D
:1024100090EA010F1CBF0020704712F07F4F04D1DB
:10242000400028BF40F00040704712F100723CBFEE
:1024300000F50000704700F0004343F0FE4040F418
:10244000000070477FEA226216BF08467FEA2363D6
:102450000146420206BF5FEA412390EA010F40F4C1
:10246000800070474FF0000304E000BF10F000430D
:1024700048BF40425FEA000C08BF704743F09643F4
:1024800001464FF000001CE050EA010208BF70470F
:102490004FF000030AE000BF50EA010208BF704796
:1024A00011F0004302D5404261EB41015FEA010CAB
:1024B00002BF84460146002043F0B64308BFA3F1A3
:1024C0008053A3F50003BCFA8CF2083AA3EBC25385
:1024D00010DB01FA02FC634400FA02FCC2F12002A4
:1024E000BCF1004F20FA02F243EB020008BF20F0DB
:1024F0000100704702F1200201FA02FCC2F1200241
:1025000050EA4C0021FA02F243EB020008BF20EA35
:10251000DC7070474FF0FF0C1CEAD0521EBF1CEA63
:10252000D15392EA0C0F93EA0C0F6FD01A4480EA51
:10253000010C400218BF5FEA41211ED04FF000633A
:1025400043EA501043EA5111A0FB01310CF0004066
:10255000B1F5000F3EBF490041EAD3715B0040EA8C
:10256000010062F17F02FD2A1DD8B3F1004F40EB5C
:10257000C25008BF20F00100704790F0000F0CF02F
:10258000004C08BF49024CEA502040EA51207F3AF3
:10259000C2BFD2F1FF0340EAC250704740F40000CE
:1025A0004FF00003013A5DDC12F1190FDCBF00F0BF
:1025B00000407047C2F10002410021FA02F1C2F16D
:1025C000200200FA02FC5FEA310040F1000053EA09
:1025D0004C0308BF20EADC70704792F0000F00F057
:1025E000004C02BF400010F4000F013AF9D040EA5D
:1025F0000C0093F0000F01F0004C02BF490011F4F1
:10260000000F013BF9D041EA0C018FE70CEAD153EE
:1026100092EA0C0F18BF93EA0C0F0AD030F0004C6E
:1026200018BF31F0004CD8D180EA010000F0004022
:10263000704790F0000F17BF90F0004F084691F0E0
:10264000000F91F0004F14D092EA0C0F01D142021A
:102650000FD193EA0C0F03D14B0218BF084608D1E3
:1026600080EA010000F0004040F0FE4040F400002D
:10267000704740F0FE4040F4400070474FF0FF0CC0
:102680001CEAD0521EBF1CEAD15392EA0C0F93EA07
:102690000C0F69D0A2EB030280EA010C49024FEA59
:1026A000402037D04FF0805343EA111143EA101312
:1026B0000CF000408B4238BF5B0042F17D024FF4CA
:1026C000000C8B4224BF5B1A40EA0C00B3EB510FA5
:1026D00024BFA3EB510340EA5C00B3EB910F24BF8E
:1026E000A3EB910340EA9C00B3EBD10F24BFA3EB13
:1026F000D10340EADC001B0118BF5FEA1C1CE0D1DB
:10270000FD2A3FF650AF8B4240EBC25008BF20F08D
:10271000010070470CF0004C4CEA50207F32C2BFE1
:10272000D2F1FF0340EAC250704740F400004FF07E
:102730000003013A37E792F0000F00F0004C02BFAF
:10274000400010F4000F013AF9D040EA0C0093F079
:10275000000F01F0004C02BF490011F4000F013BD3
:10276000F9D041EA0C0195E70CEAD15392EA0C0F3B
:1027700008D142027FF47DAF93EA0C0F7FF470AF73
:10278000084676E793EA0C0F04D14B023FF44CAFB6
:1027900008466EE730F0004C18BF31F0004CCAD14B
:1027A00030F000427FF45CAF31F000437FF43CAF87
:1027B0005FE700BF4FF0FF3C06E000BF4FF0010CA9
:1027C00002E000BF4FF0010C4DF804CD4FEA40028B
:1027D0004FEA41037FEA226C18BF7FEA236C11D0D5
:1027E00001B052EA530C18BF90EA010F58BFB2EB88
:1027F000030088BFC81738BF6FEAE17018BF40F008
:10280000010070477FEA226C02D15FEA402C05D1BB
:102810007FEA236CE4D15FEA412CE1D05DF8040B40
:10282000704700BF844608466146FFE70FB5FFF7D3
:10283000C9FF002848BF10F1000F0FBD4DF808ED8B
:10284000FFF7F4FF0CBF012000205DF808FB00BF7C
:102850004DF808EDFFF7EAFF34BF012000205DF8D6
:1028600008FB00BF4DF808EDFFF7E0FF94BF012023
:1028700000205DF808FB00BF4DF808EDFFF7D2FF20
:1028800094BF012000205DF808FB00BF4DF808ED63
:10289000FFF7C8FF34BF012000205DF808FB00BF30
:1028A00042000ED2B2F1FE4F0BD34FF09E03B3EBBA
:1028B000126209D44FEA002343F0004323FA02F0E6
:1028C00070474FF00000704712F1610F01D14202D2
:1028D00002D14FF0FF3070474FF00000704700BF4B
:1028E0000CB40B4670B59CB020AC02A902936FF0FB
:1028F000004554F8042B4FF4027606932346ADF8B6
:10290000146001944FF6FF7404950795ADF81640D6
:1029100000F030F8029B00221A701CB0BDE8704035
:1029200002B070470EB440F22403F0B59CB021AC65
:10293000C2F20003064602A954F8042B6FF00045CA
:1029400018684FF402772346029606964FF6FF76F4
:102950000194ADF8147004950795ADF8166000F079
:1029600009F8029B00221A701CB0BDE8F04003B0C9
:10297000704700BF2DE9F04FC9B0914614930B91F9
:102980000E9002F0F9FA00681A9003F065FC0B9CB7
:10299000A3891D90180603D52369002B01F07980C7
:1029A00048F2601538ACC0F6000515950DF1DF054D
:1029B0000895159D38AF099448F2C01405F110062A
:1029C000089D0023C0F60004119317947C1B1B93F1
:1029D0001C9319931E93129321942D932C932B9750
:1029E00099F80030252B18BF002B00F0B38009F1B7
:1029F0000102144601322378252B18BF002BF8D191
:102A0000B4EB09050FD02C9B2D9A0133C7F8009029
:102A1000072B7D602A442C932D92D8BF08377FDC8A
:102A20001298284412902378002B00F08180002314
:102A30008DF88F301A4613930A9304F101096378D5
:102A40004FF0FF340C9409F10109A3F1200158293A
:102A500000F20A84DFE811F08E03080408049503ED
:102A60000804080408040804080408049C03480334
:102A700008045D0035020804EF03F603F603F603CD
:102A8000F603F603F603F603F603F6030804080458
:102A900008040804080408040804080408040804D6
:102AA0006E02900208049002080408040804080456
:102AB000CD0208040804D402080408040804080429
:102AC0000804550208040804BC03080408040804A8
:102AD0000804080408040804080408040804A803F7
:102AE000D7039002900290028703D70308040804DA
:102AF0004C0308045E0324027003F0020804F7028A
:102B000008048000080408042003139C1493644202
:102B100013940A9D45F004050A9599F8003092E750
:102B20000E982BAA0B9903F0C7FB40B938AF77E793
:102B30002D9B23B10E982BAA0B9903F0BDFB0B9C88
:102B40001298A38913F0400F18BF4FF0FF3049B01F
:102B5000BDE8F08F4C4666E70A9C1693A30640F149
:102B6000D981149D0123EA1D22F0070202F1080415
:102B70001494D2E900454FF0000A8DF88FA00C980C
:102B800000280C98A2BF0A9921F080010A9154EA0A
:102B900005020CBF00220122002818BF42F00102EA
:102BA000002A00F0E583012B00F00985022B0DF1CE
:102BB000DF0240F05981DDF864C004F00F01230901
:102BC00043EA057328091CF801101C460546904687
:102BD00054EA050002F1FF3288F80010EDD1099B9C
:102BE000C8EB030310930C9C109DA542B8BF25466B
:102BF00000240D951894BAF1000F02D00D9D0135F7
:102C00000D950A9B13F002030F931EBF0D9C023417
:102C10000D940A9C14F0840540F04683139C0D9893
:102C2000C0EB040BBBF1000F40F33E83BBF1100F70
:102C300048F2601A2D99DCBFC0F6000A2C9A32DDEA
:102C4000C0F6000ACDF87C802095D8462C9AD34651
:102C50001024CA46159DDDF82C9004E0A8F1100858
:102C6000B8F1100F19DD01321031072A3D607C6088
:102C700007F108072C922D91F0DD0E9849462BAAFA
:102C800038AF03F019FB00287FF459AFA8F1100802
:102C90002D99B8F1100F2C9AE5DCD146209DDA462B
:102CA000C346DDF87C8001320BEB0104072A2C922D
:102CB0002D9487E8000C00F3EC829DF88FA0083774
:102CC000BAF1000F0ED02C9B0DF18F0201343A6047
:102CD00001330122072B7A602D94D8BF08372C933B
:102CE00000F302840F9B6BB12C9B24AA02343A6040
:102CF00001330222072B7A602D94D8BF08372C931A
:102D000000F3FE83802D00F046830C9D109BC3EBE7
:102D1000050ABAF1000F43DDBAF1100F2C9BDCBF9E
:102D2000944D0F9527DD934822461025DDF838B0E5
:102D30000B9C0F9004E0AAF1100ABAF1100F19DDF4
:102D400001331032072B3E607D6007F108072C939A
:102D50002D92F0DD584621462BAA38AF03F0ACFA8D
:102D600000287FF4ECAEAAF1100A2D9ABAF1100FE8
:102D70002C9BE5DC144601330F9D072B54442C9308
:102D800087E82004D8BF08372D9409DD0E982BAAB8
:102D90000B9903F091FA00287FF4D1AE2D9C38AF47
:102DA0000A9DEB0500F182822C9B109D0133C7F830
:102DB0000080072B2C447D602D942C9300F37A83A4
:102DC00008370A9D6B0740D513980D99451A002DB9
:102DD0003BDD102D48F2601A2C9BC0F6000A22DD64
:102DE00022464FF01008DDF838B0159C02E0103D87
:102DF000102D17DD01331032072B87E810012C93BB
:102E000007F108072D92F2DD58460B992BAA38AF2F
:102E100003F052FA00287FF492AE103D2D9A102D47
:102E20002C9BE7DC144601332C44072B2C932D9468
:102E3000C7F800A07D6008DD0E982BAA0B9903F05F
:102E40003BFA00287FF47BAE2D9C129D0D991398C0
:102E50008142ACBF6D182D181295002C40F03583BF
:102E6000002338AF2C93BBE5E308E90843EA457338
:102E700090460D4604F007021C4602F1300354EA66
:102E8000050108F1FF3288F80030EDD10A9C414677
:102E9000E00700F1F584099DC8EB05051095A2E651
:102EA0000A9D169315F0200300F0B480149C0023B3
:102EB000E21D22F0070202F108051495D2E900454F
:102EC00059E699F8003009F101042A2B00F09187A6
:102ED000A3F13001092982BFA14600240C943FF6DA
:102EE000B4AD002000EB800014F8013B01EB400082
:102EF000A3F130010929F5D940EAE070A1460C9010
:102F0000A3E50A9D169345F010050A950A9CA306B1
:102F10003FF527AE0A9DED0600F1C4830A9C6406C6
:102F200040F1C083149800250123043030F8044C8C
:102F3000149020E60A9C169344F010040A940A9D0B
:102F40008DF88F20A90640F16581149CE31D23F0C4
:102F5000070303F108051495D3E9002314461D4621
:102F6000002A73F10000C0F2BB839DF88FA00123FB
:102F700005E600BF708100080A9C169325078DF8AE
:102F80008F2040F1AB84149DEB1D23F0070303F168
:102F9000080414941D681B955B681C931B981C996E
:102FA00003F000F801281B9840F0788400220023E9
:102FB0001C9904F00FFD002840F04A869DF88FA070
:102FC0000325002448F2841848F280130D95C0F6BA
:102FD00000080A9DC0F600030C94169C25F080059D
:102FE0000A950325472CD8BF9846109500241894BD
:102FF00001E60A9D45F008050A9599F8003022E59A
:103000000A9C169344F010040A940A9D15F02003BC
:103010007FF44CAF0A9C14F0100240F04C830A9CE1
:1030200014F0400300F04783149813460025043041
:1030300030F8044C14909EE50A9D45F020050A9551
:1030400099F80030FFE4149C0025169304348DF8A1
:103050008F5054F8048CB8F1000F00F0D9850C980B
:1030600000284046C0F2AB8529460C9A02F05EFA71
:10307000002800F0FF851494C8EB00000C9C0C9510
:10308000A042B8BF0446109424EAE4750C9C0D9548
:103090009DF88FA01894AEE50A9D48F2A414C0F6DE
:1030A00000041693A8068DF88F20199440F19C8097
:1030B000149CE31D23F0070303F108051495D3E9DD
:1030C00000450A98C30740F1278254EA050100F041
:1030D0002382169A302340F002008DF890300A9037
:1030E00002238DF8912046E599F800302B22AAE4BE
:1030F00099F8003049466C2B05BF09F101090A9D7A
:103100000A9C45F020050BBF4B7844F010040A954B
:103110000A9498E40A9D8DF88F20A90640F1EB836C
:10312000149C2168129C2246E5172B46149DC1E988
:1031300000230435149553E4149A48F2A4100A9D10
:103140007823C0F600008DF8913045F00205169303
:103150000A953023151D8DF89030149502231468BC
:103160000025199007E50A9C44F040040A9499F858
:10317000003068E499F80030002A7FF464AC202223
:1031800061E40A9D45F001050A9599F800305AE47A
:10319000149C149D24682B1D002C1394FFF6B5ACD1
:1031A000149399F800304EE4149A0124149D0DF103
:1031B000B80816930023126804359A460D941495A6
:1031C0008DF88F300C93189310948DF8B82018E573
:1031D0000A9D48F29014C0F600041693A8068DF8D4
:1031E0008F2019943FF564AF0A9CE10600F15382E9
:1031F0000A9C620640F14F8214980025043030F892
:10320000044C14905DE70A9D1693A9068DF88F2053
:103210003FF59BAE0A9CE20600F155820A9C6306CC
:1032200040F151821498043030F9044C1490224635
:10323000E5172B4694E60A9D45F080050A9599F816
:10324000003000E40024A3F130012046139400EB89
:10325000800019F8013B01EB4000A3F1300109297E
:10326000F5D91390FFF7F1BB16938DF88F20002B43
:103270003FF45EAC169C002301259A460D950DF196
:10328000B8088DF8B8408DF88F300C9318931095CE
:10329000B7E40E982BAA0B9903F00EF800287FF4E0
:1032A0004EAC9DF88FA038AF2D9C09E5169D652D7D
:1032B00040F3B9801B98002200231C9904F080FB86
:1032C000002800F02C812C9B0122179D013413440F
:1032D0007A60072B2D943D60D8BF08372C9300F3FC
:1032E0001683259B119DAB4203DB0A9DED077FF5FD
:1032F00068AD1D9D2C9B2C441A9D01332D94072BEA
:103300002C933D601D9D7D60D8BF083700F35E8320
:10331000119D05F1FF38B8F1000F7FF752ADB8F1FC
:10332000100F2C9B40F3AA81AC4D4FF0100ADDF832
:103330002CB00F950E9D05E0A8F11008B8F1100F04
:1033400040F39E8101331034072B87E840042C930F
:1033500007F108072D94EFDD284659462BAA38AF10
:1033600002F0AAFF00287FF4EAAB2D9C2C9BE3E738
:10337000002B40F0B4800A9CE2075CBF10930DF173
:10338000E0087FF530AC219D30230DF1DF088DF88A
:10339000DF30109527E413980D99451A002D7FF71B
:1033A000B4AC102D2C9BDCBF8C4A0F9224DD8B48D3
:1033B00022464FF0100BDDF838A00B9C0F9002E076
:1033C000103D102D17DD01331032072B87E8400820
:1033D0002C9307F108072D92F2DD504621462BAAC7
:1033E00038AF02F069FF00287FF4A9AB103D2D9A99
:1033F000102D2C9BE7DC144601330F99072B2C442E
:103400002C9387E82200D8BF08372D947FF77DAC36
:103410000E982BAA0B9902F04FFF00287FF48FAB78
:103420002D9C38AF71E4119D2C9B012D40F3E2815E
:103430000121621C0B44C7F80080072B79602D9294
:10344000D8BF08372C9300F3F4811A9D5C1CDDF87B
:1034500074A0072C2C943D6092441D9DCDF8B4A01F
:103460007D60D8BF083700F3D7811B980022002366
:103470001C9904F0A5FA002840F0B2800134119D97
:10348000072C08F1010205F1FF332C949A443A60AD
:10349000CDF8B4A07B6000F3E4800837631C1E9D68
:1034A0001E9C072B27AA2C93544487E824002D94B4
:1034B0007FF786AC0E982BAA0B9902F0FDFE002830
:1034C0007FF43DAB2D9C38AF7BE40E982BAA0B9973
:1034D00002F0F2FE00283FF4C3ACFFF730BB1092BD
:1034E0000DF1E008FFF77FBB0E982BAA0B9902F0B5
:1034F000E3FE00287FF423AB2D9C38AFFFF7F2BB2F
:103500000E982BAA0B9902F0D7FE00287FF417AB78
:103510002D9C38AFFFF7F6BB0223FFF72CBB259B92
:10352000002B40F3FF81119D189811998542A8BF87
:103530000546002D41440C910CDD2C9B2C44C7F812
:10354000008001337D60072B2D942C93D8BF083762
:1035500000F34383189A25EAE575C5EB020ABAF130
:10356000000F40F3DD80BAF1100F2C9BDCBF1B4D28
:103570000F9540F3C080194D22464FF0100B0B9C65
:103580000F950E9D05E0AAF1100ABAF1100F40F355
:10359000B18001331032072B87E840082C9307F1E4
:1035A00008072D92EFDD284621462BAA38AF02F0FE
:1035B00083FE00287FF4C3AA2D9A2C9BE3E7002DFD
:1035C00008BF0A2C80F04181219D30340DF1DF08C5
:1035D0008DF8DF401095FFF706BB00BF7081000833
:1035E000119D05F1FF38B8F1000F7FF757AFB8F123
:1035F000100FDCBFA84B0F9328DDA74D53464FF0AB
:10360000100BDDF82CA00F950E9D04E0A8F110081A
:10361000B8F1100F19DD01341033072C87E840088A
:103620002C9407F108072D93F0DD284651462BAA6C
:1036300038AF02F041FE00287FF481AAA8F11008FB
:103640002D9BB8F1100F2C9CE5DC9A4601340F9BA2
:10365000072CC2442C94CDF8B4A087E808017FF76A
:103660001CAF0E982BAA0B9902F026FE00287FF4BF
:1036700066AADDF8B4A038AF2C9C0FE7864D0F95F5
:1036800001330F9D072B44442C932D9487E8200190
:103690007FF796AB0EE7149D043555F8044C14954E
:1036A00000250EE5149D0123043555F8044C1495AE
:1036B0000025FFF760BA149D043555F8044C1495A5
:1036C0000025FFF758BA149D043555F8044C14959D
:1036D0002246E5172B46002A73F10000BFF645ACE1
:1036E0004FF02D0A644265EB45058DF88FA001234C
:1036F000FFF745BA144601330F9D072B54442C9312
:1037000087E82004D8BF08372D9409DD0E982BAA2E
:103710000B9902F0D1FD00287FF411AA2D9C38AF3F
:10372000189D259BA844119DAB4249DB0A9DE907E2
:1037300046D40C981199C8EB0005CB1AAB42B8BF20
:103740001D46002D0CDD2C9A2C44C7F80080013258
:103750007D60072A2D942C92D8BF083700F34A8247
:1037600025EAE575C5EB0308B8F1000F7FF729AB33
:10377000B8F1100F2C9B81DD474D4FF0100ADDF89A
:103780002CB00F950E9D05E0A8F11008B8F1100FB0
:103790007FF776AF01331034072B87E840042C9372
:1037A00007F108072D94EFDD284659462BAA38AFBC
:1037B00002F082FD00287FF4C2A92D9C2C9BE3E738
:1037C0001D9D2C9A2C441A9D01322D94072A2C926F
:1037D0003D601D9D7D60D8BF0837AADD0E982BAADD
:1037E0000B9902F069FD00287FF4A9A9259B38AF49
:1037F0002D9C9EE70A9DEA073FF51AAE012204F1CF
:10380000010A9C18C7F80080072CCDF8B4A02C94AE
:103810007A607FF742AE24E70E982BAA0B9902F04C
:103820004BFD00287FF48BA9DDF8B4A038AF2C9CA9
:103830001BE60E982BAA0B9902F03EFD00287FF4A0
:103840007EA92D9A38AF2C9BFFE50DF1DF0B2046AA
:1038500029460A22002304F00DF9D84620462946BD
:1038600000230BF1FF3B303288F800200A2204F0DD
:1038700001F904460D4654EA0500E8D1FFF7AFB957
:10388000302B3FF4ACA9099C3023904601F8013C51
:10389000A41A1094FFF7A7B9708100081C9902F0D0
:1038A00081FB002840F0AB8003250A9C48F28C186D
:1038B00048F288130D95C0F60008169DC0F6000367
:1038C00024F080040C900A94472DD8BF9846032416
:1038D000189010949DF88FA0FFF78DB9149CE31DEC
:1038E00023F0070303F1080514951C681B945B681B
:1038F0001C93FFF753BB0A9CE20672D5149D129CE1
:10390000043555F8043C14951C60FFF769B80E980F
:103910002BAA0B9902F0D0FC00287FF410A92D9C53
:1039200038AFDEE42C9A0121179D01340A442D940E
:10393000072A2C923D60796000F3128108371946FE
:1039400029B9119D1DB90A9DE8077FF53AAA2C9B5C
:103950001D9A01331D9D22441A9C072B2D927D60D8
:103960003C60D8BF08372C9300F3BA81C1F1000A3C
:10397000BAF1000F40F31681BAF1100FDCBF9C4C76
:103980000F9440F3F9809A4D1024DDF82CB00F9578
:103990000E9D05E0AAF1100ABAF1100F40F3EC8079
:1039A00001331032072B3E607C6007F108072C932F
:1039B0002D92EFDD284659462BAA38AF02F07CFC49
:1039C00000287FF4BCA82D9A2C9BE3E70E982BAA25
:1039D0000B9902F071FC00287FF4B1A82D9C38AF40
:1039E00096E4149C0A9D043454F8043C15F0400FEE
:1039F000129D149414BF1D801D60FEF7F1BF0C9D35
:103A0000169C013524F0200504BF06240C9406D032
:103A1000472D04D10C9C002C08BF01240C941C9B46
:103A20000A9C002B44F480740F94BDBF1C464FF0D9
:103A30002D0B04F1004ADDF870A0A8BF4FF0000B79
:103A4000B5F1460461426141002930D003200C9C4D
:103A50005346009025A81B9A029026A80194039033
:103A600029A804900E98079100F084FA472D079931
:103A7000804603D10A9CE00740F1F0800C9C44444E
:103A800051B398F80030302B00F08481259B1C4402
:103A900022E00E98402101F091FA20602061002878
:103AA00000F0B6810B9C40236361FEF779BF452D82
:103AB00040F031810C9802211B9A5346441C00911E
:103AC000019425A90E98029126A9039129A9049190
:103AD00000F050FA8046044400231B98002251460F
:103AE00003F06EFF234648B9299B9C4206D930213A
:103AF0005A1C29921970299B9C42F9D8472DC8EB72
:103B00000303119300F0AE80169C652C40F38A816C
:103B1000169D662D00F00181259C1894189C119D1E
:103B2000AC42C0F2EA800A9C189DE0074BBF013509
:103B300025EAE57325EAE57367244DBF67241095F0
:103B40001694109548BF1694BBF1000F75D10F9CC9
:103B50000D93CDF830B00A949DF88FA0FFF74BB8C5
:103B60000E982BAA0B9902F0A7FB00287EF4E7AF72
:103B7000259938AF2D9CE3E601330F9C072B524467
:103B80002C9387E81004D8BF08372D920ADD0E98D1
:103B90002BAA0B9902F090FB00287EF4D0AF2D9A4F
:103BA00038AF2C9B0133119D119C072B2C9314448F
:103BB000C7F800802D947D607FF702A97AE40C9508
:103BC00002F04AFB14940C9C9DF88FA0189420EAF4
:103BD000E07510900D95FFF70EB80E982BAA0B9973
:103BE00002F06AFB00287EF4AAAF2D9C38AFB1E446
:103BF000708100080E982BAA0B9902F05DFB00283B
:103C00007EF49DAF259B38AF119A2D9CD31AA7E562
:103C10000C9DC24648F2B8181494062D28BF0625FC
:103C2000CDF830A01095544625EAE575CDF860A092
:103C30000D95C0F60008FEF7DEBF0F9D4FF02D0A70
:103C400000240D938DF88FA00A950C94FEF7D6BF33
:103C50004FF02D0A8DF88FA0FFF7B2B9299BC8EB62
:103C600003031193259BDA1C11DB0C9C9C420EDB99
:103C7000189353E70C9D149425EAE5750D950C9D5A
:103C800018900C9010959DF88FA0FEF7B4BF169D6C
:103C9000023D1695013B169D002B2593BABF5B4252
:103CA0002D222B22092B8DF89C508DF89D2043DC72
:103CB00030338DF89F3030238DF89E3028AB119D26
:103CC00027AA119C9A1A012D1E921444109478DD93
:103CD000109B002418940133109323EAE37333E715
:103CE0000E982BAA0B9902F0E7FA00287EF427AF72
:103CF000259938AF2D9A2C9B38E6189D119C002DE4
:103D0000D4BFC5F1020301231C446725109424EAA3
:103D1000E473169518E7022099E6259D002D189565
:103D200058DD0C9C002C44D10A9DED0741D4189C11
:103D300024EAE473109407E746F267610DF1AA05DF
:103D4000C6F2666181FB0320DA172C46013DC2EB07
:103D5000A00202EB8200A3EB40001346092B00F106
:103D600030022270EEDC0DF1AB003033A842DAB243
:103D700004F8012C53D90DF19D01234601E013F8FD
:103D8000012B834201F8012FF9D148ADC4EB450363
:103D9000F63B94E71B9800220023514603F010FEE7
:103DA00000287FF473AE0C98C0F1010325931C44E6
:103DB00092E60C9D189C6B1C1C44109424EAE4733E
:103DC000C2E60A9C14F0010382D1109D189325EAE3
:103DD000E573B9E60C9D35B90A9CE4075CBF012385
:103DE00010937FF5B1AE0C9D0235109525EAE57371
:103DF000AAE6149D99F80130A1462D680C95149DF2
:103E0000291D0C9D1491002DBEF61DAEFEF718BEA7
:103E10000E9D0C234FF0FF302B60FEF798BE0DF186
:103E20009E034CE7259B35E72DE9F04F8C4603694F
:103E300083460D6985B09D42C8BF002000F396807F
:103E4000013D01F114040BF1140A54F82510AA00E5
:103E50005AF82500914601310292CDF804C052442F
:103E6000039203F019FCA144DDF804C08046002849
:103E700041D000212246084653460F4652F8041B03
:103E80001E6891451FFA81FE4FEA11410EFB08772B
:103E90001FFA86FE01FB08F101EB1741BFB2C7EB29
:103EA0000000864488B2C0EB16404FEA114700EB91
:103EB0002E401FFA8EFE4EEA00414FEA204043F8A2
:103EC000041BDBD2029A5AF80230A3B9039A131FDB
:103ED0009A450ED252F8043C5BB9A2F1080301E006
:103EE000126832B99A451A4605F1FF35A3F1040369
:103EF000F6D3CBF810506146584601F047FE002833
:103F000033DB08F101085346002254F8046B1868AB
:103F1000A145B1B24FEA1646C1EB020287B202EBED
:103F20000701C6EB104202EB214289B241EA02418D
:103F30004FEA224243F8041BE7D25AF825200AEB45
:103F4000850392B91A1F92450DD253F8042C52B929
:103F5000083B01E0126832B99A451A4605F1FF356F
:103F6000A3F10403F6D3CBF81050404605B0BDE8EA
:103F7000F08F00BF2DE9F04F9BB0466A0446924691
:103F80009B46279D002E00F0BB82336853B17268B8
:103F90000126194696409E605A6001F09DFB636AB7
:103FA00000221A60BBF1000FB4BF012300232B6075
:103FB0004FF00003B4BF2BF00049D9461A46C7F6AC
:103FC000F073C7F6F07209EA0303B8BFCB46934219
:103FD00014D0002200235046594603F0F1FC8046DD
:103FE00028B3269E01233360289E002E00F0DC803B
:103FF000AF4B581E33601BB0BDE8F08F269E48F2D1
:10400000D01042F20F73C0F600003360BAF1000F17
:1040100000F0AA80289E002EEDD0C378002B40F03F
:10402000B280C31C289E33601BB0BDE8F08F19AA74
:1040300018AB00922046019352465B4601F0B6FE53
:104040005FEA19550B9040F0A180189F6FF48263CE
:10405000199D3D449D42C0F278824FF60E4305F211
:104060001242CFF6FF732AFA02F25B1B09FA03F041
:104070001043FDF749FE013DB84601261596A1F112
:10408000F87100230022C3F6F873FDF7FFFC82A34A
:10409000D3E90023FDF7AEFE81A3D3E90023FDF7AA
:1040A000F7FC064628460F46FDF73EFE7EA3D3E901
:1040B0000023FDF79FFE02460B4630463946FDF7CA
:1040C000E7FC06460F4603F0ADFC3946002200230C
:1040D0000490304603F07EFC002840F02682049EC7
:1040E000162E84BF01260F9612D848F2F8115246B8
:1040F000C0F600015B4601EBC601D1E9000103F007
:1041000087FC002800F01F82013E049600260F96CF
:10411000C5EB0805013D069549BF6E4200260A968B
:10412000002654BF0A960696049E002EC0F2F18126
:10413000DDF818E00E96B6440026CDF818E00C968F
:10414000249E092E35D8052EC4BF043E2496249EF5
:10415000CCBF00250125B31E032B2CD8DFE813F0BC
:104160006103290270038D0548F2C41248F2D0138E
:10417000C9F31300C0F60002C0F6000300280CBF0C
:104180001046184646E700F108034BE7CBF313034C
:10419000CDF8548043F07F535046A5F2FF35DDF84B
:1041A000608043F440116CE748F2C010C0F6000094
:1041B00021E700262496656A0023194620464FF021
:1041C000FF3625936B600996149601F04FFA636AE7
:1041D00001260D9628601B680893199B002BC0F2DE
:1041E000C780049E0E2E00F3C380DDF894E048F2F1
:1041F000F813099EC0F600034FEADE72002ECCBF12
:10420000002202F00102049E03EBC603D3E9000181
:10421000CDE90601002A40F06E8402460B46504666
:104220005946FDF711FF089E03F0FCFB751C804604
:10423000FDF77AFDDDE90623FDF7DCFD02460B46BE
:1042400050465946FDF722FC099ADDF820E008F1B6
:104250003003012A8EF8003006460F465BD000235B
:104260000022C4F22403FDF7C5FD00220023064608
:104270000F4603F0A5FB002840F01985DDF820A0CB
:10428000099808998244CDF80CA001F10209DDE9F2
:1042900006AB1AE0AFF3008061436F63A787D23F9C
:1042A000B3C8608B288AC63FFB799F501344D33F25
:1042B000C1810008FDF79EFD0022002306460F463F
:1042C00003F07EFB002840F0F28452465B46304605
:1042D0003946FDF7B9FE4D4603F0A4FB8046FDF7D5
:1042E00023FD52465B46FDF785FD02460B463046F0
:1042F0003946FDF7CBFB08F1300E09F801EC00233D
:10430000DDF80CE00022C4F22403F14509F10109B3
:1043100006460F46CED132463B4630463946FDF77B
:10432000B7FB06460F463246DDE906013B4603F081
:1043300051FB002800F07085DDF82090049E2A468D
:1043400015F8018C0895169605E04B4500F0B884E9
:1043500013F8018C1A46B8F1390F02F1FF33F4D08B
:10436000169E089208F101020496D2B21A70B1E0CA
:104370000D9E002E40F0F1800C9E0A9DDDF83480E9
:1043800006980028C8BF002D09DD03460A99AB42F4
:10439000A8BF2B46ED1AC91AC01A0A9106900C9AAA
:1043A000002A1CDD0D9B002B00F07984002E10DD0F
:1043B00041463246204601F031FB0B9A80462046AA
:1043C000414601F08BFA0B990746204601F084F92B
:1043D0000B97DDF830E0BEEB060240F0A7842046E4
:1043E000012101F071FA06460E98002805DD3146DC
:1043F00020460E9A01F012FB06462499012940F34B
:10440000908300270E98002840F06C830120069BC3
:10441000034413F01F0300F09382C3F12002042A27
:1044200040F36885C3F11C030A99069A1D44194498
:104430000A911A4406920A99002905DD0B99204633
:104440000A9A01F047FB0B90069A002A04DD3146D8
:10445000204601F03FFB06460F9B002B40F02183D6
:10446000249809990228D4BF002301230029C8BF3A
:104470000023002B00F01A820998002840F00F82D8
:10448000314603460522204601F042F906460B98C4
:10449000314601F07BFB002840F30182DDF82090DB
:1044A0000025049A3123013289F80030049209F181
:1044B000010308933146204601F00EF9B8F1000FD0
:1044C00008D0454518BF002D40F04A82414620469D
:1044D00001F002F920460B9901F0FEF8049E00223B
:1044E0004846731C089E3270269E3360289E002E1C
:1044F0003FF481AD0898306048461BB0BDE8F08FAE
:10450000102000F04BFD6062466086600660C66069
:1045100048E50A9EDDF810E0CEEB06060A96CEF1DD
:1045200000060C9600260E960AE60498FDF7FCFBA2
:1045300032463B4603F044FA00287FF4D0AD049E97
:10454000013E0496CBE50F90E2E54FF6EE30CFF654
:10455000FF70401B0AFA00F08BE5249E012E40F309
:10456000158409980C99461E0998B142AFBFC6EB55
:1045700001060C9A0C96C2EB0603BFBF0E9EF618FE
:104580000E9600260028B9BF00230A990A9D099BB0
:10459000B8BFC0EB01050A9A2046DDF818E00121FA
:1045A0001A440A929E44CDF818E001F08DF9804635
:1045B000E6E600260D96049EDDF894E0B644CDF8BC
:1045C00050E00EF101060996002E40F35983099E32
:1045D0000E2E8CBF002505F001053746666A172FA1
:1045E0004FF00001716009D9012204235B001146DC
:1045F00003F114000132B842F8D97160204601F08D
:1046000035F8636A30601B680893002D3FF4E5AD10
:10461000049ECDE912AB002E40F3AB8106F00F02F1
:1046200048F2F8133511C0F6000303EBC203E906A4
:10463000D3E9006740F18F8148F2E8235046C0F685
:104640000003594605F00F054FF00308D3E908238E
:10465000FDF7FAFC82468B469DB148F2E829C0F688
:104660000009EA073046394607D5D9E9002308F1A1
:104670000108FDF7BFFB06460F466D1009F108095A
:10468000EFD132463B4650465946FDF7DDFC064623
:104690000F460F9850B10023304639460022C3F62A
:1046A000F07303F097F9002840F015834046FDF7BA
:1046B0003BFB32463B46FDF79DFB00230022C4F244
:1046C0001C03FDF7E5F980460998A1F1507900280F
:1046D00000F0C9800499DDF824C016910D9A002AD3
:1046E00000F0798148F2F813089AC0F6000300211F
:1046F00003EBCC030020C3F6E071551C53E9022301
:10470000CDF808C0FDF7A0FC42464B46FDF7BEF9C8
:1047100082468B463046394603F084F98046FDF7E1
:1047200003FB08F130085FFA88F802460B46304672
:104730003946FDF7ABF9DDF820E08EF8008006463B
:104740000F465046594632463B4603F061F9002871
:1047500040F0C283002132463B460020C3F6F07190
:10476000FDF794F902460B465046594603F050F9BE
:10477000DDF808C0002840F01483BCF1010F40F3BD
:10478000F580DDF820901794E144CDF84090A946DB
:1047900010E000210020C3F6F071FDF777F95246D2
:1047A0005B4603F017F9002840F0F9821098814524
:1047B00000F0DB800023504659460022C4F2240357
:1047C000FDF718FB00230022C4F2240382468B4627
:1047D00030463946FDF70EFB0D46044603F022F93C
:1047E0008046FDF7A1FA08F130085FFA88F8024622
:1047F0000B4620462946FDF749F952465B4609F823
:10480000018B06460F4603F0E5F832463B4600288A
:10481000BFD0169E4D46179CDDF820900496089553
:1048200058E600260D962598002840F333820E287E
:104830008CBF002505F00105074614900990CDE6D0
:1048400001260D96EFE74046FDF76EFA32463B46ED
:10485000FDF7D0FA00230022C4F21C03FDF718F97B
:104860008046A1F15079002330460022C4F214039F
:104870003946FDF70BF942464B4682468B4603F01C
:10488000C7F80646002840F0A380424650465946E5
:1048900009F1004303F09EF8002867D0B04625993F
:1048A0000025DDF82090C943049103E60D98002807
:1048B00040F064810025DDF824A0DDF82C90DDF8BF
:1048C00020B002E000F024FF814631464846FFF761
:1048D000ABFA49460A22002300F130070BF80570B5
:1048E000013520465545EDDBDDF820B01D46099821
:1048F000CDF82C900128ACBF83440BF1010B0B9930
:104900000122204601F0E6F831460B9001F03EF915
:10491000002840F36F821BF8012C089905E08B42B8
:1049200000F0288213F8012C9B46392A0BF1FF3343
:10493000F5D00132DDF820901A70CDF820B0B9E53D
:104940001C23DDF828E01D4406989E44CDF828E09D
:10495000184406906FE5DDE912AB4FF002087BE6E4
:104960002946204600F0B8FEB0E5179CDDE912AB01
:1049700033E4049E7542002D00F09D8105F00F0286
:1049800048F2F813C0F60003DDE9120103EBC2039D
:10499000D3E90023FDF72EFA2D1106460F4600F04D
:1049A000978248F2E8294FF00208C0F60009EB07A9
:1049B0003046394607D5D9E9002308F10108FDF74B
:1049C00019FA06460F466D1009F10809EFD160E6A5
:1049D0000026B04662E50CF1FF3B48F2F811C0F644
:1049E0000001089801EBCB0142464B4600F1010A59
:1049F000D1E90001CDF808C0FDF7FCF9CDE91001BF
:104A00003946304603F00EF80546FDF78DF930358E
:104A100002460B4630463946FDF738F80F460899EE
:104A200006460D70DDF808C0BCF1010F22D0089ACF
:104A30003046394602F1FF391546E1440023002291
:104A4000C4F22403FDF7D6F90F46064602F0EAFF4A
:104A50008046FDF769F908F1300802460B463046FA
:104A60003946FDF713F805F8018F4D45E6D10646A6
:104A70000F46DA4400230022C3F6E073DDE910019B
:104A8000FDF706F832463B4602F0A4FF002800F08E
:104A90005481DDF8209052461AF8018CCDF820A000
:104AA00059E40B98314601F071F80028BFF6D8ACF4
:104AB000DDF810E020460B990A2200230EF1FF3E9C
:104AC000CDF810E000F024FE0B900D98002841D1A5
:104AD0001499149B002903DC249A022A00F307820C
:104AE0000993E7E6336906EB8303186900F0A2FE39
:104AF000C0F120008BE4099E002E40F08B81002342
:104B00000022C4F21403DDE90601FDF773F95246F1
:104B10005B4602F073FF099EB04600287FF4BFAEEB
:104B2000BCE4BAF1000F7FF46CACCBF3130357462F
:104B3000002B7FF467AC2BF000473F0D3F05002FA3
:104B40003FF460AC0A9A0127069B01320A920133B6
:104B5000069357E4002341460A22204600F0D8FD80
:104B6000149A2499002ACCBF002301230229D8BF1C
:104B700000238046002B40F0B6810992002D05DD10
:104B800041462A46204600F0A5FF8046C446002F35
:104B900040F0538109990AF00103089A37460898B2
:104BA000E1460A4409930A92451C0B9E0AE000F074
:104BB000AFFD49460A2200238046204600F0A8FDAA
:104BC0008146013539463046FFF72EF94146824687
:104BD000304600F0DBFF4A4639468346204600F067
:104BE000F7FF0AF13002059205F1FF3ECDF818E01B
:104BF000C2680346002A3ED119463046029300F0AF
:104C0000C5FF029B024620461946029200F064FD51
:104C1000029A2498104303D10999002900F04A818F
:104C2000BBF1000FC0F2C38024995BEA010103D1FC
:104C3000099B002B00F0BB80002A00F31B810A9B1C
:104C4000AB46059A9D4205F8012C00F024813146BF
:104C50000A220023204600F05BFDC84541464FF084
:104C60000A024FF0000306462046A0D100F050FD96
:104C700080468146A5E70122C5E701260D969AE404
:104C80000E2E8CBF00220122666A002315401946B1
:104C90007360B3E40122259214920992F4E70B9910
:104CA00020460C9A00F0BAFE0B90FFF798BBDDF897
:104CB000209008950EE4DDE912674FF00208E8E461
:104CC000169E302108923122013689F80010049690
:104CD0001A70FFF7FFBB099900293FF4B4AD149A8D
:104CE000002A7FF743AE0023002230463946C4F243
:104CF0002403FDF77FF8049B013B1693064608F159
:104D000001000F46FDF710F802460B4630463946C3
:104D1000FDF770F800230022C4F21C03FCF7B8FE74
:104D2000DDF850C08046A1F15079D7E40B992046B8
:104D300000F074FE0B90FFF752BB0021DDE9102359
:104D40000020C3F6E071FCF7A1FE32463B4602F0BC
:104D50005FFE00283FF40AAE53460AF1FF3A13F80B
:104D6000012C302AF8D0169EDDF820900893049686
:104D7000FFF7B0BBDDF8209031230499CDF820B0C7
:104D8000013189F800300491FFF794BB159E002E85
:104D900069D003F233430C9E0A9DFFF7FCBB179CBE
:104DA0004D46DDF820902A460895FFF7D4BA002A30
:104DB0000B96CC463E46059F12DD0B9901222046FC
:104DC000CDF8089000F086FE31460B9000F0DEFE34
:104DD000DDF808C0002877DD392F62D00AF13107ED
:104DE000069B4546DDF82090E046581C1F70089051
:104DF000FFF760BB02D1FB073FF58DAD5B460BF1C2
:104E0000FF3B13F8012C302AF8D0DDF820900893EE
:104E1000FFF750BB002641E5DDE9060132463B467F
:104E200002F0CEFD00283FF442AF18F0010FDDF88C
:104E300020903FF43EAFFFF781BAD8F80410204627
:104E400000F014FCD8F8103008F10C019A1C920004
:104E500005460C3000F0B2FB20462946012200F046
:104E600039FE844696E6189B0C9E0A9DC3F13603D4
:104E7000FFF791BB0B963E46059FCC46392F10D0CD
:104E8000069B0137DDF820904546581CE0461F7010
:104E90000890FFF70FBB0B9645463E46C846059F58
:104EA0002DE5069B392245460899E04603F1010BA2
:104EB0001A703AE50B963E46059FCC46392FF0D046
:104EC000BBF1000F8ADC8BE78AD1FA0788D583E72C
:104ED0004FF00208FFF7DDBB169EDDF82090089525
:104EE0000496FFF7F7BA149A0992FFF7C5BA099327
:104EF000FFF7C2BA3FF49FAAC3F13C0321E500BF0C
:104F000010B514463AB148F2D8111046C0F6000167
:104F100001F084F820B948F2D410C0F6000010BDAA
:104F200048F2D4112046C0F6000101F077F80028BD
:104F3000F1D048F2A0112046C0F6000101F06EF851
:104F400048F2D413C0F6000300280CBF1846002016
:104F500010BD00BF40F21810C2F20000704700BF41
:104F600040F21813C2F20003186A704700487047F5
:104F70003C01002000207047004870475C01002081
:104F800040F224030A46C2F2000301461868FFF704
:104F9000B7BF00BF004870475C01002040F2240307
:104FA0000146C2F20003186800F008B840F224037A
:104FB0000146C2F20003186801F0F2BF2DE9F04F7C
:104FC00001F10B04162C83B08EBF24F007040023DC
:104FD0001024074688BFE30F8C422CBF194643F0CC
:104FE0000101002940F0BA8000F03CFBB4F5FC7FE1
:104FF00020D240F294164FEAD40CC2F2000606EB1F
:10500000CC02D368934200F0F781596803F1080895
:10501000DA68384621F00304996823445C68CA6062
:1050200044F0010491605C6000F01EFB404603B058
:10503000BDE8F08F5FEA542C04BF7E254FF03F0C93
:1050400040F0948040F29416C2F2000606EB85050B
:10505000EB689D4206D10DE0002A80F26481DB6896
:105060009D4207D0596821F003010A1B0F2AF3DD86
:105070000CF1FF3C0CF1010C40F294123369C2F2C6
:10508000000202F1080E734508BF516823D058682A
:1050900020F00300011B0F2900F392810029C2F8C0
:1050A00014E0C2F810E06CDAB0F5007F80F06181A6
:1050B000C0084FF00108516802EBC005801008FAE3
:1050C00000F848EA0108A8684146DD60C2F804809B
:1050D0009860AB60C36001224FEAAC0302FA03F3AD
:1050E0008B425CD819420BD193402CF0030C19422F
:1050F0000CF1040C04D15B000CF1040C1942FAD041
:1051000006EBCC08E1464046C268904207D16BE10D
:10511000002980F27B81D268904200F06581556859
:1051200025F00305291B0F29F2DD9046D568384686
:10513000131958F8087F44F0010C41F00104C2F83B
:1051400004C0FD60AF6073613361C3F80CE0C3F865
:1051500008E05C60595000F087FA67E74FF00008FC
:105160000C230360404603B0BDE8F08FBCF1040F90
:1051700000F2EB804FEA941C0CF1380C4FEA4C051E
:1051800060E71A1803F108083846536843F0010332
:10519000536000F069FA404603B0BDE8F08FB5688F
:1051A0006B6823F0030A544504D8C4EB0A030F2BA1
:1051B00000F3A88040F2B459D6F80814C2F20009EE
:1051C0003846013105EB0A02D9F800300192234438
:1051D00017BF03F5805303F1100B0F3323F47F63E4
:1051E00018BF23F00F0B594600F004FF019AB0F1ED
:1051F000FF3F804600F02081824200F21A81D9F8F8
:10520000043042455B44C9F8043000F06581D6F8AB
:10521000081440F29410C2F20000013117BFC2EB33
:105220000802C0F808849B18C9F8043018F0070376
:1052300038461FBFC3F10802C3F58053904403F101
:10524000080208EB0B0308BF4FF48052C3F30B03B3
:10525000C3EB020B594600F0CDFE40F2B452C6F843
:105260000880C2F20002431CD9F8043015BFC8EB15
:105270000001012159444FF0000B18BF41F001011A
:10528000B5425B44C8F80410C9F8043018D0BAF12C
:105290000F0F40F20081AAF10C00696820F00700AE
:1052A0004FF0050C05EB000E0F2801F0010140EA5C
:1052B00001016960CEF804C0CEF808C000F2188180
:1052C00040F2B452D9F82C10C2F20002B5688B42F9
:1052D000D9F8301088BFD36240F2B452C2F2000253
:1052E0008B4288BF13636A6822F003029442C4EBC6
:1052F000020301D80F2B05DC38464FF0000800F000
:10530000B3F993E62A1943F00103384644F0010447
:105310006C6005F10808B260536000F0A5F94046E2
:1053200003B0BDE8F08F1944DA689C6838464D68D0
:1053300003F10808E26045F0010594604D6000F05B
:1053400093F9404603B0BDE8F08FBCF1140F9CBF49
:105350000CF15B0C4FEA4C057FF674AEBCF1540FB8
:1053600000F28F804FEA143C0CF16E0C4FEA4C05B2
:1053700068E6420A042A58D9142A9CBF02F15B014C
:105380004D0005D9542A00F2BC80010B6E314D004E
:1053900006EB850540F29418C2F20008AA68AA42FA
:1053A0007FD0516821F00301884202D29268954271
:1053B000F7D1D0687168D8609A608360D3608AE65C
:1053C0001D1941F0010644F0010438465C6003F108
:1053D000080855611561C5F80CE0C5F808E06E6075
:1053E000695000F041F921E609F10109083019F08E
:1053F000030F7FF489AE28E003F108025B699A424B
:1054000008BF0CF1020C3FF437AEFEE590461544A0
:10541000D368384658F8082F696841F0010169607F
:10542000D3609A6000F020F900E6810938314D0020
:10543000AEE7B5423FF4E3AEB5686A6822F0030216
:1054400054E7D8F8008090456DD11CF0030FA8F107
:1054500008020CF1FF3CF4D1726822EA0302726088
:105460005B0093423FF69BAE002B3FF498AE1A428E
:10547000CC467FF445AE5B000CF1040C1A42FAD026
:105480003EE6BCF5AA7F18D84FEAD43C0CF1770C65
:105490004FEA4C05D6E501234546C8F80430002202
:1054A00024E74FF001098D10D8F80410104609FACE
:1054B00005F52943C8F804107DE740F254539C4594
:1054C00095BF4FEA944CFC250CF17C0C4FF07E0C00
:1054D00098BF4FEA4C05B5E5C2F30B0100297FF4F4
:1054E00096AEB2680BEB0A0141F001015160E7E6AC
:1054F00005F108013846019201F052FD019A536806
:10550000DEE6B2F5AA7F03D8C10B77314D003FE745
:1055100040F254518A4295BF810CFC257C317E219A
:1055200098BF4D0034E772689AE700BF8307C9B29D
:1055300070B43FD0541E2AB303788B4223D0431C4F
:1055400004E0FCB1057814468D421CD013F0030F23
:10555000184604F1FF3203F10103F2D1032C14D8F1
:10556000651E4CB303788B420DD0421C002302E031
:1055700004788C4207D0AB42104603F1010302F1DC
:105580000102F5D1002070BC704741EA01260346B4
:1055900046EA06461846043302687240A2F1013515
:1055A00025EA020212F0803FDAD1043C1846032CAF
:1055B000F0D8D5E71446D1E72046E4E70F2AF0B447
:1055C00045D940EA01039B0745D1A2F110070C46DB
:1055D00003463F0900EB07161036256810331034D8
:1055E00043F8105C54F80C5C43F80C5C54F8085C0D
:1055F00043F8085C54F8045C43F8045CB342ECD113
:105600007B1C02F00F0CBCF1030F4FEA031319448B
:10561000034422D90E461D46644656F8047B043CDA
:10562000032C45F8047BF8D8ACF1040402F0030223
:1056300024F0030404342344214432B10A4411F811
:10564000014B914203F8014BF9D1F0BC704703467E
:10565000002AF3D1F9E70346F0E76246002AEDD1CC
:10566000F3E700BF704700BF704700BF70B5064644
:10567000446A0D4664B1E2689AB152F82530E3B14C
:10568000196842F82510002218461A61DA6070BDC8
:105690001020FFF783FC7062446084600460C46083
:1056A000044621223046042101F0F6FB736AE060D3
:1056B000DA68002AE1D1002070BD01233046194686
:1056C00003FA05F4621D920001F0E6FB0346002890
:1056D000F1D045608460D6E730B50446456A83B0B2
:1056E00055B139B1636A4A68DB6853F82200086033
:1056F00043F8221003B030BD10200191FFF74EFC9B
:1057000001996062456085600560C560E9E700BF9A
:105710002DE9F0478846D1F810A082B0814601F10A
:10572000140500242F680134A245BEB24FEA174782
:1057300002FB063602FB07F303EB1643B6B206EB99
:1057400003464FEA134345F8046BEBDC53B1D8F83A
:10575000082092450ADA08EB8A010AF101024B613E
:10576000C8F81020404602B0BDE8F087D8F8041011
:10577000484601930131FFF779FFD8F8102008F16E
:105780000C010232920004460C30FFF717FF41462D
:105790004846A046FFF7A0FF019BDCE72DE9F84350
:1057A000994648F6396309F10805C3F6E3030C4648
:1057B0000746904683FB0513ED17089EC5EB630370
:1057C000012B35DD012500216D000131AB42FBDCF1
:1057D0003846FFF74BFFB8F1090F4FF00103DCBF6C
:1057E0000A344FF009084661036110DD04F109062F
:1057F0004444354615F8013B01460A223846303B01
:10580000FFF786FFA542F5D106EB0804083CC14529
:105810000CDDC8EB0908A04414F8013B01460A223C
:105820003846303BFFF774FF4445F5D1BDE8F883B7
:105830000021CDE7030C06BF00041023002310F065
:105840007F4F04BF0002083310F0704F04BF000107
:10585000043310F0404F04BF80000233002805DB02
:10586000420001D420207047581C704718467047EA
:105870000368024613F0070009D0D90721D498071E
:105880004BBF5B089B08012002201360704799B250
:1058900009B91B0C102013F0FF0F04BF1B0A0830BE
:1058A000190704BF1B090430990704BF9B08023085
:1058B000D90704D45B0801D1202070470130136060
:1058C00070470020704700BF10B50C460121FFF75C
:1058D000CDFE01224461026110BD00BF2DE9F04FF1
:1058E0000C460E6985B015699346AE4204DA32461D
:1058F0005C462E468B461546A36806EB0509616893
:105900009945C8BF0131FFF7B1FE00F1140A0290BA
:105910000AEB890101918A4506D2019A534600207B
:1059200043F8040B9A42FBD80BF1140B14340BEB25
:1059300085050094AB4504EB86063CBFCDF80C9082
:10594000A94654D25BF8043B9CB2002C64D0009969
:1059500052460025A44600E01A4651F8044B13466F
:1059600017688E421FFA84F84FEA1444B8B24FEA1F
:1059700017470CFB08080CFB0470454400EB15406E
:10598000ADB245EA00444FEA104543F8044BE3D872
:1059900055605BF8044C240C23D0DAF80010504614
:1059A000009B00270D4600E01046B3F800C02D0C08
:1059B000024689B204FB0C552F4441EA074142F8E4
:1059C000041B416853F804CB0D4689B29E424FEA4E
:1059D0001C4C04FB0C1101EB17414FEA1147E3D8B3
:1059E0004160D9450AF1040AACD8DDF80C90B9F150
:1059F000000F0ADD019B043B1A681AB105E053F859
:105A0000042D12B9B9F10109F9D102990846C1F87A
:105A1000109005B0BDE8F08F1C46BCE712F0030300
:105A20002DE9F043144683B007460E462BD1A4104F
:105A30001CD07B6A002B32D09D68002D3AD04FF0ED
:105A4000000904E0641011D0286898B10546E30706
:105A5000F8D531462A463846FFF740FF31468046A2
:105A60003846FFF739FE64104646EDD1304603B0A4
:105A7000BDE8F083384629462A46FFF72FFF286005
:105A8000C0F80090E2E748F2E8125D1EC0F600029E
:105A9000002352F82520FFF73BFE0646C7E71020FB
:105AA0000193FFF77BFA019B786243608360036098
:105AB000C3600346012138460193FFF7D7FD019BE0
:105AC00040F2712201214261054600220161986085
:105AD0000260B4E72DE9F84F93460A690F464FEA92
